{
  "_format": "hh-sol-artifact-1",
  "contractName": "AuctionHouse",
  "sourceName": "contracts/AuctionHouse.sol",
  "abi": [
    {
      "anonymous": false,
      "inputs": [
        {
          "indexed": true,
          "internalType": "address",
          "name": "collection",
          "type": "address"
        },
        {
          "indexed": true,
          "internalType": "address",
          "name": "owner",
          "type": "address"
        },
        {
          "indexed": false,
          "internalType": "string",
          "name": "name",
          "type": "string"
        },
        {
          "indexed": false,
          "internalType": "string",
          "name": "symbol",
          "type": "string"
        }
      ],
      "name": "CollectionCreated",
      "type": "event"
    },
    {
      "inputs": [
        {
          "internalType": "address",
          "name": "owner",
          "type": "address"
        },
        {
          "internalType": "string",
          "name": "name",
          "type": "string"
        },
        {
          "internalType": "string",
          "name": "symbol",
          "type": "string"
        }
      ],
      "name": "createCollection",
      "outputs": [],
      "stateMutability": "nonpayable",
      "type": "function"
    }
  ],
  "bytecode": "0x608060405234801561001057600080fd5b506103e7806100206000396000f3fe608060405234801561001057600080fd5b506004361061002b5760003560e01c806335a9c59614610030575b600080fd5b61004a60048036038101906100459190610270565b61004c565b005b8273ffffffffffffffffffffffffffffffffffffffff163373ffffffffffffffffffffffffffffffffffffffff167f5fead977881b23a0dbf2f905699203f29cefea57a576d2d4f412523191258e8484846040516100ab92919061037a565b60405180910390a3505050565b6000604051905090565b600080fd5b600080fd5b600073ffffffffffffffffffffffffffffffffffffffff82169050919050565b60006100f7826100cc565b9050919050565b610107816100ec565b811461011257600080fd5b50565b600081359050610124816100fe565b92915050565b600080fd5b600080fd5b6000601f19601f8301169050919050565b7f4e487b7100000000000000000000000000000000000000000000000000000000600052604160045260246000fd5b61017d82610134565b810181811067ffffffffffffffff8211171561019c5761019b610145565b5b80604052505050565b60006101af6100b8565b90506101bb8282610174565b919050565b600067ffffffffffffffff8211156101db576101da610145565b5b6101e482610134565b9050602081019050919050565b82818337600083830152505050565b600061021361020e846101c0565b6101a5565b90508281526020810184848401111561022f5761022e61012f565b5b61023a8482856101f1565b509392505050565b600082601f8301126102575761025661012a565b5b8135610267848260208601610200565b91505092915050565b600080600060608486031215610289576102886100c2565b5b600061029786828701610115565b935050602084013567ffffffffffffffff8111156102b8576102b76100c7565b5b6102c486828701610242565b925050604084013567ffffffffffffffff8111156102e5576102e46100c7565b5b6102f186828701610242565b9150509250925092565b600081519050919050565b600082825260208201905092915050565b60005b8381101561033557808201518184015260208101905061031a565b60008484015250505050565b600061034c826102fb565b6103568185610306565b9350610366818560208601610317565b61036f81610134565b840191505092915050565b600060408201905081810360008301526103948185610341565b905081810360208301526103a88184610341565b9050939250505056fea2646970667358221220da9d80a6e77f5de12d5d7dd739ed4b2f9202607c38531a2a16b404476ffc6eed64736f6c63430008140033",
  "linkReferences": {},
  "deployedLinkReferences": {}
}