{
  "_format": "hh-sol-artifact-1",
  "contractName": "AuctionHouse",
  "sourceName": "contracts/AuctionHouse.sol",
  "abi": [
    {
      "inputs": [
        {
          "internalType": "address",
          "name": "auctionCoinAddress",
          "type": "address"
        },
        {
          "internalType": "address",
          "name": "initialOwner",
          "type": "address"
        }
      ],
      "stateMutability": "nonpayable",
      "type": "constructor"
    },
    {
      "inputs": [
        {
          "internalType": "address",
          "name": "owner",
          "type": "address"
        }
      ],
      "name": "OwnableInvalidOwner",
      "type": "error"
    },
    {
      "inputs": [
        {
          "internalType": "address",
          "name": "account",
          "type": "address"
        }
      ],
      "name": "OwnableUnauthorizedAccount",
      "type": "error"
    },
    {
      "anonymous": false,
      "inputs": [
        {
          "indexed": true,
          "internalType": "address",
          "name": "collection",
          "type": "address"
        },
        {
          "indexed": true,
          "internalType": "address",
          "name": "owner",
          "type": "address"
        },
        {
          "indexed": false,
          "internalType": "string",
          "name": "name",
          "type": "string"
        },
        {
          "indexed": false,
          "internalType": "string",
          "name": "symbol",
          "type": "string"
        }
      ],
      "name": "CollectionCreated",
      "type": "event"
    },
    {
      "anonymous": false,
      "inputs": [
        {
          "indexed": false,
          "internalType": "address",
          "name": "collection",
          "type": "address"
        },
        {
          "indexed": false,
          "internalType": "uint256",
          "name": "tokenId",
          "type": "uint256"
        },
        {
          "indexed": true,
          "internalType": "address",
          "name": "from",
          "type": "address"
        },
        {
          "indexed": true,
          "internalType": "address",
          "name": "to",
          "type": "address"
        },
        {
          "indexed": false,
          "internalType": "string",
          "name": "tokenURI",
          "type": "string"
        }
      ],
      "name": "ItemTransfer",
      "type": "event"
    },
    {
      "anonymous": false,
      "inputs": [
        {
          "indexed": true,
          "internalType": "address",
          "name": "previousOwner",
          "type": "address"
        },
        {
          "indexed": true,
          "internalType": "address",
          "name": "newOwner",
          "type": "address"
        }
      ],
      "name": "OwnershipTransferred",
      "type": "event"
    },
    {
      "inputs": [
        {
          "internalType": "address",
          "name": "collection",
          "type": "address"
        },
        {
          "internalType": "uint256",
          "name": "tokenId",
          "type": "uint256"
        },
        {
          "internalType": "uint256",
          "name": "startPrice",
          "type": "uint256"
        },
        {
          "internalType": "uint256",
          "name": "endTime",
          "type": "uint256"
        },
        {
          "internalType": "string",
          "name": "tokenURI",
          "type": "string"
        },
        {
          "internalType": "address",
          "name": "seller",
          "type": "address"
        }
      ],
      "name": "auctionItem",
      "outputs": [],
      "stateMutability": "nonpayable",
      "type": "function"
    },
    {
      "inputs": [
        {
          "internalType": "address",
          "name": "",
          "type": "address"
        },
        {
          "internalType": "uint256",
          "name": "",
          "type": "uint256"
        }
      ],
      "name": "auctions",
      "outputs": [
        {
          "internalType": "uint256",
          "name": "price",
          "type": "uint256"
        },
        {
          "internalType": "uint256",
          "name": "endTime",
          "type": "uint256"
        },
        {
          "internalType": "address payable",
          "name": "seller",
          "type": "address"
        },
        {
          "internalType": "address",
          "name": "highestBidder",
          "type": "address"
        }
      ],
      "stateMutability": "view",
      "type": "function"
    },
    {
      "inputs": [
        {
          "internalType": "address",
          "name": "collection",
          "type": "address"
        },
        {
          "internalType": "uint256",
          "name": "tokenId",
          "type": "uint256"
        }
      ],
      "name": "cancelAuction",
      "outputs": [],
      "stateMutability": "nonpayable",
      "type": "function"
    },
    {
      "inputs": [
        {
          "internalType": "address",
          "name": "collection",
          "type": "address"
        },
        {
          "internalType": "uint256",
          "name": "tokenId",
          "type": "uint256"
        }
      ],
      "name": "claimItem",
      "outputs": [],
      "stateMutability": "nonpayable",
      "type": "function"
    },
    {
      "inputs": [
        {
          "internalType": "address",
          "name": "owner",
          "type": "address"
        },
        {
          "internalType": "string",
          "name": "name",
          "type": "string"
        },
        {
          "internalType": "string",
          "name": "symbol",
          "type": "string"
        }
      ],
      "name": "createCollection",
      "outputs": [],
      "stateMutability": "nonpayable",
      "type": "function"
    },
    {
      "inputs": [
        {
          "internalType": "uint256",
          "name": "tokenId",
          "type": "uint256"
        },
        {
          "internalType": "address",
          "name": "from",
          "type": "address"
        },
        {
          "internalType": "address",
          "name": "to",
          "type": "address"
        },
        {
          "internalType": "string",
          "name": "tokenURI",
          "type": "string"
        }
      ],
      "name": "createItem",
      "outputs": [],
      "stateMutability": "nonpayable",
      "type": "function"
    },
    {
      "inputs": [
        {
          "internalType": "address",
          "name": "collection",
          "type": "address"
        },
        {
          "internalType": "uint256",
          "name": "tokenId",
          "type": "uint256"
        }
      ],
      "name": "endAuction",
      "outputs": [],
      "stateMutability": "nonpayable",
      "type": "function"
    },
    {
      "inputs": [],
      "name": "feePercentage",
      "outputs": [
        {
          "internalType": "uint256",
          "name": "",
          "type": "uint256"
        }
      ],
      "stateMutability": "view",
      "type": "function"
    },
    {
      "inputs": [
        {
          "internalType": "address",
          "name": "collection",
          "type": "address"
        },
        {
          "internalType": "uint256",
          "name": "tokenId",
          "type": "uint256"
        },
        {
          "internalType": "uint256",
          "name": "newPrice",
          "type": "uint256"
        }
      ],
      "name": "lowerStartingPrice",
      "outputs": [],
      "stateMutability": "nonpayable",
      "type": "function"
    },
    {
      "inputs": [
        {
          "internalType": "address",
          "name": "",
          "type": "address"
        }
      ],
      "name": "managers",
      "outputs": [
        {
          "internalType": "bool",
          "name": "",
          "type": "bool"
        }
      ],
      "stateMutability": "view",
      "type": "function"
    },
    {
      "inputs": [],
      "name": "owner",
      "outputs": [
        {
          "internalType": "address",
          "name": "",
          "type": "address"
        }
      ],
      "stateMutability": "view",
      "type": "function"
    },
    {
      "inputs": [
        {
          "internalType": "address",
          "name": "collection",
          "type": "address"
        },
        {
          "internalType": "uint256",
          "name": "tokenId",
          "type": "uint256"
        },
        {
          "internalType": "uint256",
          "name": "bidAmount",
          "type": "uint256"
        }
      ],
      "name": "placeBid",
      "outputs": [],
      "stateMutability": "nonpayable",
      "type": "function"
    },
    {
      "inputs": [],
      "name": "renounceOwnership",
      "outputs": [],
      "stateMutability": "nonpayable",
      "type": "function"
    },
    {
      "inputs": [
        {
          "internalType": "uint256",
          "name": "newFeePercentage",
          "type": "uint256"
        }
      ],
      "name": "setFeePercentage",
      "outputs": [],
      "stateMutability": "nonpayable",
      "type": "function"
    },
    {
      "inputs": [
        {
          "internalType": "address",
          "name": "manager",
          "type": "address"
        }
      ],
      "name": "toggleManager",
      "outputs": [],
      "stateMutability": "nonpayable",
      "type": "function"
    },
    {
      "inputs": [
        {
          "internalType": "address",
          "name": "newOwner",
          "type": "address"
        }
      ],
      "name": "transferOwnership",
      "outputs": [],
      "stateMutability": "nonpayable",
      "type": "function"
    },
    {
      "inputs": [],
      "name": "withdrawFees",
      "outputs": [],
      "stateMutability": "nonpayable",
      "type": "function"
    }
  ],
  "bytecode": "0x60806040526658d15e176280006004553480156200001c57600080fd5b5060405162003a4038038062003a40833981810160405281019062000042919062000241565b80600073ffffffffffffffffffffffffffffffffffffffff168173ffffffffffffffffffffffffffffffffffffffff1603620000b85760006040517f1e4fbdf7000000000000000000000000000000000000000000000000000000008152600401620000af919062000299565b60405180910390fd5b620000c9816200011360201b60201c565b5081600360006101000a81548173ffffffffffffffffffffffffffffffffffffffff021916908373ffffffffffffffffffffffffffffffffffffffff1602179055505050620002b6565b60008060009054906101000a900473ffffffffffffffffffffffffffffffffffffffff169050816000806101000a81548173ffffffffffffffffffffffffffffffffffffffff021916908373ffffffffffffffffffffffffffffffffffffffff1602179055508173ffffffffffffffffffffffffffffffffffffffff168173ffffffffffffffffffffffffffffffffffffffff167f8be0079c531659141344cd1fd0a4f28419497f9722a3daafe3b4186f6b6457e060405160405180910390a35050565b600080fd5b600073ffffffffffffffffffffffffffffffffffffffff82169050919050565b60006200020982620001dc565b9050919050565b6200021b81620001fc565b81146200022757600080fd5b50565b6000815190506200023b8162000210565b92915050565b600080604083850312156200025b576200025a620001d7565b5b60006200026b858286016200022a565b92505060206200027e858286016200022a565b9150509250929050565b6200029381620001fc565b82525050565b6000602082019050620002b0600083018462000288565b92915050565b61377a80620002c66000396000f3fe608060405234801561001057600080fd5b506004361061010b5760003560e01c806388cedbc4116100a2578063a44b418511610071578063a44b418514610257578063ae06c1b714610273578063b85177ce1461028f578063f2fde38b146102ab578063fdff9b4d146102c75761010b565b806388cedbc4146101e35780638da5cb5b146101ff5780639135fd1c1461021d578063a001ecdd146102395761010b565b806344f91c1e116100de57806344f91c1e14610180578063476343ee146101b3578063715018a6146101bd578063859b97fe146101c75761010b565b806304717aca14610110578063212ff6691461012c57806335a9c59614610148578063424d78a214610164575b600080fd5b61012a60048036038101906101259190612454565b6102f7565b005b61014660048036038101906101419190612454565b6106b7565b005b610162600480360381019061015d91906125ed565b6109a2565b005b61017e60048036038101906101799190612678565b610a0e565b005b61019a600480360381019061019591906126a5565b610b2a565b6040516101aa9493929190612724565b60405180910390f35b6101bb610ba7565b005b6101c5610e93565b005b6101e160048036038101906101dc91906126a5565b610ea7565b005b6101fd60048036038101906101f891906126a5565b6112bf565b005b610207611856565b6040516102149190612769565b60405180910390f35b61023760048036038101906102329190612784565b61187f565b005b6102416118ee565b60405161024e9190612807565b60405180910390f35b610271600480360381019061026c9190612822565b6118f4565b005b61028d600480360381019061028891906128cb565b611b2d565b005b6102a960048036038101906102a491906126a5565b611c8f565b005b6102c560048036038101906102c09190612678565b6121b3565b005b6102e160048036038101906102dc9190612678565b612239565b6040516102ee9190612913565b60405180910390f35b6000600160008573ffffffffffffffffffffffffffffffffffffffff1673ffffffffffffffffffffffffffffffffffffffff168152602001908152602001600020600084815260200190815260200160002060405180608001604052908160008201548152602001600182015481526020016002820160009054906101000a900473ffffffffffffffffffffffffffffffffffffffff1673ffffffffffffffffffffffffffffffffffffffff1673ffffffffffffffffffffffffffffffffffffffff1681526020016003820160009054906101000a900473ffffffffffffffffffffffffffffffffffffffff1673ffffffffffffffffffffffffffffffffffffffff1673ffffffffffffffffffffffffffffffffffffffff168152505090504281602001511161045c576040517f08c379a00000000000000000000000000000000000000000000000000000000081526004016104539061298b565b60405180910390fd5b806000015182116104a2576040517f08c379a000000000000000000000000000000000000000000000000000000000815260040161049990612a1d565b60405180910390fd5b600082116104e5576040517f08c379a00000000000000000000000000000000000000000000000000000000081526004016104dc90612a89565b60405180910390fd5b600073ffffffffffffffffffffffffffffffffffffffff16816060015173ffffffffffffffffffffffffffffffffffffffff16146105c757600360009054906101000a900473ffffffffffffffffffffffffffffffffffffffff1673ffffffffffffffffffffffffffffffffffffffff1663a9059cbb826060015183600001516040518363ffffffff1660e01b8152600401610582929190612aa9565b6020604051808303816000875af11580156105a1573d6000803e3d6000fd5b505050506040513d601f19601f820116820180604052508101906105c59190612afe565b505b81600160008673ffffffffffffffffffffffffffffffffffffffff1673ffffffffffffffffffffffffffffffffffffffff16815260200190815260200160002060008581526020019081526020016000206000018190555033600160008673ffffffffffffffffffffffffffffffffffffffff1673ffffffffffffffffffffffffffffffffffffffff168152602001908152602001600020600085815260200190815260200160002060030160006101000a81548173ffffffffffffffffffffffffffffffffffffffff021916908373ffffffffffffffffffffffffffffffffffffffff16021790555050505050565b6000600160008573ffffffffffffffffffffffffffffffffffffffff1673ffffffffffffffffffffffffffffffffffffffff168152602001908152602001600020600084815260200190815260200160002060405180608001604052908160008201548152602001600182015481526020016002820160009054906101000a900473ffffffffffffffffffffffffffffffffffffffff1673ffffffffffffffffffffffffffffffffffffffff1673ffffffffffffffffffffffffffffffffffffffff1681526020016003820160009054906101000a900473ffffffffffffffffffffffffffffffffffffffff1673ffffffffffffffffffffffffffffffffffffffff1673ffffffffffffffffffffffffffffffffffffffff168152505090503373ffffffffffffffffffffffffffffffffffffffff16816040015173ffffffffffffffffffffffffffffffffffffffff1614610848576040517f08c379a000000000000000000000000000000000000000000000000000000000815260040161083f90612b9d565b60405180910390fd5b8060000151821061088e576040517f08c379a000000000000000000000000000000000000000000000000000000000815260040161088590612c2f565b60405180910390fd5b600082116108d1576040517f08c379a00000000000000000000000000000000000000000000000000000000081526004016108c890612c9b565b60405180910390fd5b600073ffffffffffffffffffffffffffffffffffffffff16816060015173ffffffffffffffffffffffffffffffffffffffff1614610944576040517f08c379a000000000000000000000000000000000000000000000000000000000815260040161093b90612d2d565b60405180910390fd5b81600160008673ffffffffffffffffffffffffffffffffffffffff1673ffffffffffffffffffffffffffffffffffffffff16815260200190815260200160002060008581526020019081526020016000206000018190555050505050565b8273ffffffffffffffffffffffffffffffffffffffff163373ffffffffffffffffffffffffffffffffffffffff167f5fead977881b23a0dbf2f905699203f29cefea57a576d2d4f412523191258e848484604051610a01929190612dbb565b60405180910390a3505050565b610a16611856565b73ffffffffffffffffffffffffffffffffffffffff163373ffffffffffffffffffffffffffffffffffffffff1614610a83576040517f08c379a0000000000000000000000000000000000000000000000000000000008152600401610a7a90612e3e565b60405180910390fd5b600260008273ffffffffffffffffffffffffffffffffffffffff1673ffffffffffffffffffffffffffffffffffffffff16815260200190815260200160002060009054906101000a900460ff1615600260008373ffffffffffffffffffffffffffffffffffffffff1673ffffffffffffffffffffffffffffffffffffffff16815260200190815260200160002060006101000a81548160ff02191690831515021790555050565b6001602052816000526040600020602052806000526040600020600091509150508060000154908060010154908060020160009054906101000a900473ffffffffffffffffffffffffffffffffffffffff16908060030160009054906101000a900473ffffffffffffffffffffffffffffffffffffffff16905084565b610baf611856565b73ffffffffffffffffffffffffffffffffffffffff163373ffffffffffffffffffffffffffffffffffffffff161480610c315750600260003373ffffffffffffffffffffffffffffffffffffffff1673ffffffffffffffffffffffffffffffffffffffff16815260200190815260200160002060009054906101000a900460ff165b610c70576040517f08c379a0000000000000000000000000000000000000000000000000000000008152600401610c6790612ed0565b60405180910390fd5b6000600360009054906101000a900473ffffffffffffffffffffffffffffffffffffffff1673ffffffffffffffffffffffffffffffffffffffff166370a08231306040518263ffffffff1660e01b8152600401610ccd9190612769565b602060405180830381865afa158015610cea573d6000803e3d6000fd5b505050506040513d601f19601f82011682018060405250810190610d0e9190612f05565b11610d4e576040517f08c379a0000000000000000000000000000000000000000000000000000000008152600401610d4590612f7e565b60405180910390fd5b600360009054906101000a900473ffffffffffffffffffffffffffffffffffffffff1673ffffffffffffffffffffffffffffffffffffffff1663a9059cbb610d94611856565b600360009054906101000a900473ffffffffffffffffffffffffffffffffffffffff1673ffffffffffffffffffffffffffffffffffffffff166370a08231306040518263ffffffff1660e01b8152600401610def9190612769565b602060405180830381865afa158015610e0c573d6000803e3d6000fd5b505050506040513d601f19601f82011682018060405250810190610e309190612f05565b6040518363ffffffff1660e01b8152600401610e4d929190612aa9565b6020604051808303816000875af1158015610e6c573d6000803e3d6000fd5b505050506040513d601f19601f82011682018060405250810190610e909190612afe565b50565b610e9b612259565b610ea560006122e0565b565b6000600160008473ffffffffffffffffffffffffffffffffffffffff1673ffffffffffffffffffffffffffffffffffffffff168152602001908152602001600020600083815260200190815260200160002060405180608001604052908160008201548152602001600182015481526020016002820160009054906101000a900473ffffffffffffffffffffffffffffffffffffffff1673ffffffffffffffffffffffffffffffffffffffff1673ffffffffffffffffffffffffffffffffffffffff1681526020016003820160009054906101000a900473ffffffffffffffffffffffffffffffffffffffff1673ffffffffffffffffffffffffffffffffffffffff1673ffffffffffffffffffffffffffffffffffffffff168152505090503373ffffffffffffffffffffffffffffffffffffffff16816040015173ffffffffffffffffffffffffffffffffffffffff1614611038576040517f08c379a000000000000000000000000000000000000000000000000000000000815260040161102f90612fea565b60405180910390fd5b600073ffffffffffffffffffffffffffffffffffffffff16816060015173ffffffffffffffffffffffffffffffffffffffff16146110ab576040517f08c379a00000000000000000000000000000000000000000000000000000000081526004016110a29061307c565b60405180910390fd5b8273ffffffffffffffffffffffffffffffffffffffff166323b872dd308360400151856040518463ffffffff1660e01b81526004016110ec939291906130fb565b600060405180830381600087803b15801561110657600080fd5b505af115801561111a573d6000803e3d6000fd5b50505050600160008473ffffffffffffffffffffffffffffffffffffffff1673ffffffffffffffffffffffffffffffffffffffff168152602001908152602001600020600083815260200190815260200160002060008082016000905560018201600090556002820160006101000a81549073ffffffffffffffffffffffffffffffffffffffff02191690556003820160006101000a81549073ffffffffffffffffffffffffffffffffffffffff02191690555050806040015173ffffffffffffffffffffffffffffffffffffffff163073ffffffffffffffffffffffffffffffffffffffff167fd56b245b128ffd8c5e48e67a23de2e5d36df72fc3b9c357b2aec8545e9f3006385858773ffffffffffffffffffffffffffffffffffffffff1663c87b56dd886040518263ffffffff1660e01b815260040161125d9190612807565b600060405180830381865afa15801561127a573d6000803e3d6000fd5b505050506040513d6000823e3d601f19601f820116820180604052508101906112a391906131a2565b6040516112b2939291906131eb565b60405180910390a3505050565b6000600160008473ffffffffffffffffffffffffffffffffffffffff1673ffffffffffffffffffffffffffffffffffffffff168152602001908152602001600020600083815260200190815260200160002060405180608001604052908160008201548152602001600182015481526020016002820160009054906101000a900473ffffffffffffffffffffffffffffffffffffffff1673ffffffffffffffffffffffffffffffffffffffff1673ffffffffffffffffffffffffffffffffffffffff1681526020016003820160009054906101000a900473ffffffffffffffffffffffffffffffffffffffff1673ffffffffffffffffffffffffffffffffffffffff1673ffffffffffffffffffffffffffffffffffffffff16815250509050600073ffffffffffffffffffffffffffffffffffffffff16816060015173ffffffffffffffffffffffffffffffffffffffff1603611451576040517f08c379a000000000000000000000000000000000000000000000000000000000815260040161144890613275565b60405180910390fd5b806040015173ffffffffffffffffffffffffffffffffffffffff163373ffffffffffffffffffffffffffffffffffffffff16146114c3576040517f08c379a00000000000000000000000000000000000000000000000000000000081526004016114ba906132e1565b60405180910390fd5b6000600454670de0b6b3a76400006114db919061335f565b82600001516114ea919061335f565b9050600360009054906101000a900473ffffffffffffffffffffffffffffffffffffffff1673ffffffffffffffffffffffffffffffffffffffff1663a9059cbb30836040518363ffffffff1660e01b8152600401611549929190612aa9565b6020604051808303816000875af1158015611568573d6000803e3d6000fd5b505050506040513d601f19601f8201168201806040525081019061158c9190612afe565b50600360009054906101000a900473ffffffffffffffffffffffffffffffffffffffff1673ffffffffffffffffffffffffffffffffffffffff1663a9059cbb83604001518385600001516115e09190613390565b6040518363ffffffff1660e01b81526004016115fd9291906133c4565b6020604051808303816000875af115801561161c573d6000803e3d6000fd5b505050506040513d601f19601f820116820180604052508101906116409190612afe565b508373ffffffffffffffffffffffffffffffffffffffff166323b872dd308460600151866040518463ffffffff1660e01b8152600401611682939291906133ed565b600060405180830381600087803b15801561169c57600080fd5b505af11580156116b0573d6000803e3d6000fd5b50505050600160008573ffffffffffffffffffffffffffffffffffffffff1673ffffffffffffffffffffffffffffffffffffffff168152602001908152602001600020600084815260200190815260200160002060008082016000905560018201600090556002820160006101000a81549073ffffffffffffffffffffffffffffffffffffffff02191690556003820160006101000a81549073ffffffffffffffffffffffffffffffffffffffff02191690555050816060015173ffffffffffffffffffffffffffffffffffffffff163073ffffffffffffffffffffffffffffffffffffffff167fd56b245b128ffd8c5e48e67a23de2e5d36df72fc3b9c357b2aec8545e9f3006386868873ffffffffffffffffffffffffffffffffffffffff1663c87b56dd896040518263ffffffff1660e01b81526004016117f39190612807565b600060405180830381865afa158015611810573d6000803e3d6000fd5b505050506040513d6000823e3d601f19601f8201168201806040525081019061183991906131a2565b604051611848939291906131eb565b60405180910390a350505050565b60008060009054906101000a900473ffffffffffffffffffffffffffffffffffffffff16905090565b8173ffffffffffffffffffffffffffffffffffffffff168373ffffffffffffffffffffffffffffffffffffffff167fd56b245b128ffd8c5e48e67a23de2e5d36df72fc3b9c357b2aec8545e9f300633387856040516118e0939291906131eb565b60405180910390a350505050565b60045481565b60008411611937576040517f08c379a000000000000000000000000000000000000000000000000000000000815260040161192e90613470565b60405180910390fd5b428311611979576040517f08c379a0000000000000000000000000000000000000000000000000000000008152600401611970906134dc565b60405180910390fd5b60405180608001604052808581526020018481526020018273ffffffffffffffffffffffffffffffffffffffff168152602001600073ffffffffffffffffffffffffffffffffffffffff16815250600160008873ffffffffffffffffffffffffffffffffffffffff1673ffffffffffffffffffffffffffffffffffffffff1681526020019081526020016000206000878152602001908152602001600020600082015181600001556020820151816001015560408201518160020160006101000a81548173ffffffffffffffffffffffffffffffffffffffff021916908373ffffffffffffffffffffffffffffffffffffffff16021790555060608201518160030160006101000a81548173ffffffffffffffffffffffffffffffffffffffff021916908373ffffffffffffffffffffffffffffffffffffffff1602179055509050503073ffffffffffffffffffffffffffffffffffffffff168173ffffffffffffffffffffffffffffffffffffffff167fd56b245b128ffd8c5e48e67a23de2e5d36df72fc3b9c357b2aec8545e9f30063888886604051611b1d939291906131eb565b60405180910390a3505050505050565b670de0b6b3a7640000811115611b78576040517f08c379a0000000000000000000000000000000000000000000000000000000008152600401611b6f9061356e565b60405180910390fd5b6000811015611bbc576040517f08c379a0000000000000000000000000000000000000000000000000000000008152600401611bb390613600565b60405180910390fd5b611bc4611856565b73ffffffffffffffffffffffffffffffffffffffff163373ffffffffffffffffffffffffffffffffffffffff161480611c465750600260003373ffffffffffffffffffffffffffffffffffffffff1673ffffffffffffffffffffffffffffffffffffffff16815260200190815260200160002060009054906101000a900460ff165b611c85576040517f08c379a0000000000000000000000000000000000000000000000000000000008152600401611c7c90613692565b60405180910390fd5b8060048190555050565b6000600160008473ffffffffffffffffffffffffffffffffffffffff1673ffffffffffffffffffffffffffffffffffffffff168152602001908152602001600020600083815260200190815260200160002060405180608001604052908160008201548152602001600182015481526020016002820160009054906101000a900473ffffffffffffffffffffffffffffffffffffffff1673ffffffffffffffffffffffffffffffffffffffff1673ffffffffffffffffffffffffffffffffffffffff1681526020016003820160009054906101000a900473ffffffffffffffffffffffffffffffffffffffff1673ffffffffffffffffffffffffffffffffffffffff1673ffffffffffffffffffffffffffffffffffffffff168152505090503373ffffffffffffffffffffffffffffffffffffffff16816060015173ffffffffffffffffffffffffffffffffffffffff1614611e20576040517f08c379a0000000000000000000000000000000000000000000000000000000008152600401611e1790613724565b60405180910390fd5b6000600454670de0b6b3a7640000611e38919061335f565b8260000151611e47919061335f565b9050600360009054906101000a900473ffffffffffffffffffffffffffffffffffffffff1673ffffffffffffffffffffffffffffffffffffffff1663a9059cbb8360400151838560000151611e9c9190613390565b6040518363ffffffff1660e01b8152600401611eb99291906133c4565b6020604051808303816000875af1158015611ed8573d6000803e3d6000fd5b505050506040513d601f19601f82011682018060405250810190611efc9190612afe565b50600360009054906101000a900473ffffffffffffffffffffffffffffffffffffffff1673ffffffffffffffffffffffffffffffffffffffff1663a9059cbb30836040518363ffffffff1660e01b8152600401611f5a929190612aa9565b6020604051808303816000875af1158015611f79573d6000803e3d6000fd5b505050506040513d601f19601f82011682018060405250810190611f9d9190612afe565b508373ffffffffffffffffffffffffffffffffffffffff166323b872dd308460600151866040518463ffffffff1660e01b8152600401611fdf939291906133ed565b600060405180830381600087803b158015611ff957600080fd5b505af115801561200d573d6000803e3d6000fd5b50505050600160008573ffffffffffffffffffffffffffffffffffffffff1673ffffffffffffffffffffffffffffffffffffffff168152602001908152602001600020600084815260200190815260200160002060008082016000905560018201600090556002820160006101000a81549073ffffffffffffffffffffffffffffffffffffffff02191690556003820160006101000a81549073ffffffffffffffffffffffffffffffffffffffff02191690555050816060015173ffffffffffffffffffffffffffffffffffffffff163073ffffffffffffffffffffffffffffffffffffffff167fd56b245b128ffd8c5e48e67a23de2e5d36df72fc3b9c357b2aec8545e9f3006386868873ffffffffffffffffffffffffffffffffffffffff1663c87b56dd896040518263ffffffff1660e01b81526004016121509190612807565b600060405180830381865afa15801561216d573d6000803e3d6000fd5b505050506040513d6000823e3d601f19601f8201168201806040525081019061219691906131a2565b6040516121a5939291906131eb565b60405180910390a350505050565b6121bb612259565b600073ffffffffffffffffffffffffffffffffffffffff168173ffffffffffffffffffffffffffffffffffffffff160361222d5760006040517f1e4fbdf70000000000000000000000000000000000000000000000000000000081526004016122249190612769565b60405180910390fd5b612236816122e0565b50565b60026020528060005260406000206000915054906101000a900460ff1681565b6122616123a4565b73ffffffffffffffffffffffffffffffffffffffff1661227f611856565b73ffffffffffffffffffffffffffffffffffffffff16146122de576122a26123a4565b6040517f118cdaa70000000000000000000000000000000000000000000000000000000081526004016122d59190612769565b60405180910390fd5b565b60008060009054906101000a900473ffffffffffffffffffffffffffffffffffffffff169050816000806101000a81548173ffffffffffffffffffffffffffffffffffffffff021916908373ffffffffffffffffffffffffffffffffffffffff1602179055508173ffffffffffffffffffffffffffffffffffffffff168173ffffffffffffffffffffffffffffffffffffffff167f8be0079c531659141344cd1fd0a4f28419497f9722a3daafe3b4186f6b6457e060405160405180910390a35050565b600033905090565b6000604051905090565b600080fd5b600080fd5b600073ffffffffffffffffffffffffffffffffffffffff82169050919050565b60006123eb826123c0565b9050919050565b6123fb816123e0565b811461240657600080fd5b50565b600081359050612418816123f2565b92915050565b6000819050919050565b6124318161241e565b811461243c57600080fd5b50565b60008135905061244e81612428565b92915050565b60008060006060848603121561246d5761246c6123b6565b5b600061247b86828701612409565b935050602061248c8682870161243f565b925050604061249d8682870161243f565b9150509250925092565b600080fd5b600080fd5b6000601f19601f8301169050919050565b7f4e487b7100000000000000000000000000000000000000000000000000000000600052604160045260246000fd5b6124fa826124b1565b810181811067ffffffffffffffff82111715612519576125186124c2565b5b80604052505050565b600061252c6123ac565b905061253882826124f1565b919050565b600067ffffffffffffffff821115612558576125576124c2565b5b612561826124b1565b9050602081019050919050565b82818337600083830152505050565b600061259061258b8461253d565b612522565b9050828152602081018484840111156125ac576125ab6124ac565b5b6125b784828561256e565b509392505050565b600082601f8301126125d4576125d36124a7565b5b81356125e484826020860161257d565b91505092915050565b600080600060608486031215612606576126056123b6565b5b600061261486828701612409565b935050602084013567ffffffffffffffff811115612635576126346123bb565b5b612641868287016125bf565b925050604084013567ffffffffffffffff811115612662576126616123bb565b5b61266e868287016125bf565b9150509250925092565b60006020828403121561268e5761268d6123b6565b5b600061269c84828501612409565b91505092915050565b600080604083850312156126bc576126bb6123b6565b5b60006126ca85828601612409565b92505060206126db8582860161243f565b9150509250929050565b6126ee8161241e565b82525050565b60006126ff826123c0565b9050919050565b61270f816126f4565b82525050565b61271e816123e0565b82525050565b600060808201905061273960008301876126e5565b61274660208301866126e5565b6127536040830185612706565b6127606060830184612715565b95945050505050565b600060208201905061277e6000830184612715565b92915050565b6000806000806080858703121561279e5761279d6123b6565b5b60006127ac8782880161243f565b94505060206127bd87828801612409565b93505060406127ce87828801612409565b925050606085013567ffffffffffffffff8111156127ef576127ee6123bb565b5b6127fb878288016125bf565b91505092959194509250565b600060208201905061281c60008301846126e5565b92915050565b60008060008060008060c0878903121561283f5761283e6123b6565b5b600061284d89828a01612409565b965050602061285e89828a0161243f565b955050604061286f89828a0161243f565b945050606061288089828a0161243f565b935050608087013567ffffffffffffffff8111156128a1576128a06123bb565b5b6128ad89828a016125bf565b92505060a06128be89828a01612409565b9150509295509295509295565b6000602082840312156128e1576128e06123b6565b5b60006128ef8482850161243f565b91505092915050565b60008115159050919050565b61290d816128f8565b82525050565b60006020820190506129286000830184612904565b92915050565b600082825260208201905092915050565b7f41756374696f6e2068617320656e646564000000000000000000000000000000600082015250565b600061297560118361292e565b91506129808261293f565b602082019050919050565b600060208201905081810360008301526129a481612968565b9050919050565b7f426964206d7573742062652067726561746572207468616e2063757272656e7460008201527f2070726963650000000000000000000000000000000000000000000000000000602082015250565b6000612a0760268361292e565b9150612a12826129ab565b604082019050919050565b60006020820190508181036000830152612a36816129fa565b9050919050565b7f426964206d7573742062652067726561746572207468616e2030000000000000600082015250565b6000612a73601a8361292e565b9150612a7e82612a3d565b602082019050919050565b60006020820190508181036000830152612aa281612a66565b9050919050565b6000604082019050612abe6000830185612715565b612acb60208301846126e5565b9392505050565b612adb816128f8565b8114612ae657600080fd5b50565b600081519050612af881612ad2565b92915050565b600060208284031215612b1457612b136123b6565b5b6000612b2284828501612ae9565b91505092915050565b7f4f6e6c792073656c6c65722063616e206c6f776572207374617274696e67207060008201527f7269636500000000000000000000000000000000000000000000000000000000602082015250565b6000612b8760248361292e565b9150612b9282612b2b565b604082019050919050565b60006020820190508181036000830152612bb681612b7a565b9050919050565b7f4e6577207072696365206d757374206265206c6f776572207468616e2063757260008201527f72656e7420707269636500000000000000000000000000000000000000000000602082015250565b6000612c19602a8361292e565b9150612c2482612bbd565b604082019050919050565b60006020820190508181036000830152612c4881612c0c565b9050919050565b7f4e6577207072696365206d7573742062652067726561746572207468616e2030600082015250565b6000612c8560208361292e565b9150612c9082612c4f565b602082019050919050565b60006020820190508181036000830152612cb481612c78565b9050919050565b7f43616e6e6f74206c6f77657220707269636520696620736f6d656f6e6520686160008201527f7320616c72656164792062696400000000000000000000000000000000000000602082015250565b6000612d17602d8361292e565b9150612d2282612cbb565b604082019050919050565b60006020820190508181036000830152612d4681612d0a565b9050919050565b600081519050919050565b60005b83811015612d76578082015181840152602081019050612d5b565b60008484015250505050565b6000612d8d82612d4d565b612d97818561292e565b9350612da7818560208601612d58565b612db0816124b1565b840191505092915050565b60006040820190508181036000830152612dd58185612d82565b90508181036020830152612de98184612d82565b90509392505050565b7f4f6e6c79206f776e65722063616e20746f67676c65206d616e61676572000000600082015250565b6000612e28601d8361292e565b9150612e3382612df2565b602082019050919050565b60006020820190508181036000830152612e5781612e1b565b9050919050565b7f4f6e6c79206f776e6572206f72206d616e61676572732063616e20776974686460008201527f7261772066656573000000000000000000000000000000000000000000000000602082015250565b6000612eba60288361292e565b9150612ec582612e5e565b604082019050919050565b60006020820190508181036000830152612ee981612ead565b9050919050565b600081519050612eff81612428565b92915050565b600060208284031215612f1b57612f1a6123b6565b5b6000612f2984828501612ef0565b91505092915050565b7f4e6f206665657320746f20776974686472617700000000000000000000000000600082015250565b6000612f6860138361292e565b9150612f7382612f32565b602082019050919050565b60006020820190508181036000830152612f9781612f5b565b9050919050565b7f4f6e6c792073656c6c65722063616e2063616e63656c2061756374696f6e0000600082015250565b6000612fd4601e8361292e565b9150612fdf82612f9e565b602082019050919050565b6000602082019050818103600083015261300381612fc7565b9050919050565b7f43616e6e6f742063616e63656c2061756374696f6e20696620736f6d656f6e6560008201527f2068617320616c72656164792062696400000000000000000000000000000000602082015250565b600061306660308361292e565b91506130718261300a565b604082019050919050565b6000602082019050818103600083015261309581613059565b9050919050565b6000819050919050565b60006130c16130bc6130b7846123c0565b61309c565b6123c0565b9050919050565b60006130d3826130a6565b9050919050565b60006130e5826130c8565b9050919050565b6130f5816130da565b82525050565b60006060820190506131106000830186612715565b61311d60208301856130ec565b61312a60408301846126e5565b949350505050565b60006131456131408461253d565b612522565b905082815260208101848484011115613161576131606124ac565b5b61316c848285612d58565b509392505050565b600082601f830112613189576131886124a7565b5b8151613199848260208601613132565b91505092915050565b6000602082840312156131b8576131b76123b6565b5b600082015167ffffffffffffffff8111156131d6576131d56123bb565b5b6131e284828501613174565b91505092915050565b60006060820190506132006000830186612715565b61320d60208301856126e5565b818103604083015261321f8184612d82565b9050949350505050565b7f4e6f20626964732068617665206265656e20706c616365640000000000000000600082015250565b600061325f60188361292e565b915061326a82613229565b602082019050919050565b6000602082019050818103600083015261328e81613252565b9050919050565b7f4f6e6c792073656c6c65722063616e20656e642061756374696f6e0000000000600082015250565b60006132cb601b8361292e565b91506132d682613295565b602082019050919050565b600060208201905081810360008301526132fa816132be565b9050919050565b7f4e487b7100000000000000000000000000000000000000000000000000000000600052601260045260246000fd5b7f4e487b7100000000000000000000000000000000000000000000000000000000600052601160045260246000fd5b600061336a8261241e565b91506133758361241e565b92508261338557613384613301565b5b828204905092915050565b600061339b8261241e565b91506133a68361241e565b92508282039050818111156133be576133bd613330565b5b92915050565b60006040820190506133d960008301856130ec565b6133e660208301846126e5565b9392505050565b60006060820190506134026000830186612715565b61340f6020830185612715565b61341c60408301846126e5565b949350505050565b7f5072696365206d7573742062652067726561746572207468616e203000000000600082015250565b600061345a601c8361292e565b915061346582613424565b602082019050919050565b600060208201905081810360008301526134898161344d565b9050919050565b7f456e642074696d65206d75737420626520696e20746865206675747572650000600082015250565b60006134c6601e8361292e565b91506134d182613490565b602082019050919050565b600060208201905081810360008301526134f5816134b9565b9050919050565b7f4665652070657263656e74616765206d757374206265206c657373207468616e60008201527f206f7220657175616c20746f2031303025000000000000000000000000000000602082015250565b600061355860318361292e565b9150613563826134fc565b604082019050919050565b600060208201905081810360008301526135878161354b565b9050919050565b7f4665652070657263656e74616765206d7573742062652067726561746572207460008201527f68616e206f7220657175616c20746f2030250000000000000000000000000000602082015250565b60006135ea60328361292e565b91506135f58261358e565b604082019050919050565b60006020820190508181036000830152613619816135dd565b9050919050565b7f4f6e6c79206f776e6572206f72206d616e61676572732063616e20736574206660008201527f65652070657263656e7461676500000000000000000000000000000000000000602082015250565b600061367c602d8361292e565b915061368782613620565b604082019050919050565b600060208201905081810360008301526136ab8161366f565b9050919050565b7f4f6e6c792068696768657374206269646465722063616e20636c61696d20697460008201527f656d000000000000000000000000000000000000000000000000000000000000602082015250565b600061370e60228361292e565b9150613719826136b2565b604082019050919050565b6000602082019050818103600083015261373d81613701565b905091905056fea26469706673582212203a1861f0ec7ccb4d64487600f15cfddd5c201d8db07db454ea1d2f69dbe68fff64736f6c63430008140033",
  "linkReferences": {},
  "deployedLinkReferences": {}
}