{
  "_format": "hh-sol-artifact-1",
  "contractName": "AuctionHouse",
  "sourceName": "contracts/AuctionHouse.sol",
  "abi": [
    {
      "anonymous": false,
      "inputs": [
        {
          "indexed": true,
          "internalType": "address",
          "name": "collection",
          "type": "address"
        },
        {
          "indexed": true,
          "internalType": "address",
          "name": "owner",
          "type": "address"
        },
        {
          "indexed": false,
          "internalType": "string",
          "name": "name",
          "type": "string"
        },
        {
          "indexed": false,
          "internalType": "string",
          "name": "symbol",
          "type": "string"
        }
      ],
      "name": "CollectionCreated",
      "type": "event"
    },
    {
      "anonymous": false,
      "inputs": [
        {
          "indexed": true,
          "internalType": "address",
          "name": "owner",
          "type": "address"
        },
        {
          "indexed": true,
          "internalType": "uint256",
          "name": "tokenId",
          "type": "uint256"
        },
        {
          "indexed": false,
          "internalType": "string",
          "name": "tokenURI",
          "type": "string"
        }
      ],
      "name": "ItemCreated",
      "type": "event"
    },
    {
      "inputs": [
        {
          "internalType": "address",
          "name": "owner",
          "type": "address"
        },
        {
          "internalType": "string",
          "name": "name",
          "type": "string"
        },
        {
          "internalType": "string",
          "name": "symbol",
          "type": "string"
        }
      ],
      "name": "createCollection",
      "outputs": [],
      "stateMutability": "nonpayable",
      "type": "function"
    },
    {
      "inputs": [
        {
          "internalType": "address",
          "name": "owner",
          "type": "address"
        },
        {
          "internalType": "uint256",
          "name": "tokenId",
          "type": "uint256"
        },
        {
          "internalType": "string",
          "name": "tokenURI",
          "type": "string"
        }
      ],
      "name": "createItem",
      "outputs": [],
      "stateMutability": "nonpayable",
      "type": "function"
    }
  ],
  "bytecode": "0x608060405234801561001057600080fd5b50610529806100206000396000f3fe608060405234801561001057600080fd5b50600436106100365760003560e01c806335a9c5961461003b578063a780632014610057575b600080fd5b610055600480360381019061005091906102eb565b610073565b005b610071600480360381019061006c91906103ac565b6100df565b005b8273ffffffffffffffffffffffffffffffffffffffff163373ffffffffffffffffffffffffffffffffffffffff167f5fead977881b23a0dbf2f905699203f29cefea57a576d2d4f412523191258e8484846040516100d292919061049a565b60405180910390a3505050565b818373ffffffffffffffffffffffffffffffffffffffff167f77e4cbb0138f162921d80fadb675058ab30dbd5917de41ea153d859d8b0ff6a58360405161012691906104d1565b60405180910390a3505050565b6000604051905090565b600080fd5b600080fd5b600073ffffffffffffffffffffffffffffffffffffffff82169050919050565b600061017282610147565b9050919050565b61018281610167565b811461018d57600080fd5b50565b60008135905061019f81610179565b92915050565b600080fd5b600080fd5b6000601f19601f8301169050919050565b7f4e487b7100000000000000000000000000000000000000000000000000000000600052604160045260246000fd5b6101f8826101af565b810181811067ffffffffffffffff82111715610217576102166101c0565b5b80604052505050565b600061022a610133565b905061023682826101ef565b919050565b600067ffffffffffffffff821115610256576102556101c0565b5b61025f826101af565b9050602081019050919050565b82818337600083830152505050565b600061028e6102898461023b565b610220565b9050828152602081018484840111156102aa576102a96101aa565b5b6102b584828561026c565b509392505050565b600082601f8301126102d2576102d16101a5565b5b81356102e284826020860161027b565b91505092915050565b6000806000606084860312156103045761030361013d565b5b600061031286828701610190565b935050602084013567ffffffffffffffff81111561033357610332610142565b5b61033f868287016102bd565b925050604084013567ffffffffffffffff8111156103605761035f610142565b5b61036c868287016102bd565b9150509250925092565b6000819050919050565b61038981610376565b811461039457600080fd5b50565b6000813590506103a681610380565b92915050565b6000806000606084860312156103c5576103c461013d565b5b60006103d386828701610190565b93505060206103e486828701610397565b925050604084013567ffffffffffffffff81111561040557610404610142565b5b610411868287016102bd565b9150509250925092565b600081519050919050565b600082825260208201905092915050565b60005b8381101561045557808201518184015260208101905061043a565b60008484015250505050565b600061046c8261041b565b6104768185610426565b9350610486818560208601610437565b61048f816101af565b840191505092915050565b600060408201905081810360008301526104b48185610461565b905081810360208301526104c88184610461565b90509392505050565b600060208201905081810360008301526104eb8184610461565b90509291505056fea26469706673582212209570ce9a860a3005799891eb03379b7daa2fe292db3097fb90f9af8c278f4a7b64736f6c63430008140033",
  "linkReferences": {},
  "deployedLinkReferences": {}
}