{
  "_format": "hh-sol-artifact-1",
  "contractName": "DigitalItem",
  "sourceName": "contracts/DigitalItem.sol",
  "abi": [
    {
      "inputs": [
        {
          "internalType": "string",
          "name": "name",
          "type": "string"
        },
        {
          "internalType": "string",
          "name": "symbol",
          "type": "string"
        },
        {
          "internalType": "address",
          "name": "auctionHouse",
          "type": "address"
        }
      ],
      "stateMutability": "nonpayable",
      "type": "constructor"
    },
    {
      "inputs": [
        {
          "internalType": "address",
          "name": "sender",
          "type": "address"
        },
        {
          "internalType": "uint256",
          "name": "tokenId",
          "type": "uint256"
        },
        {
          "internalType": "address",
          "name": "owner",
          "type": "address"
        }
      ],
      "name": "ERC721IncorrectOwner",
      "type": "error"
    },
    {
      "inputs": [
        {
          "internalType": "address",
          "name": "operator",
          "type": "address"
        },
        {
          "internalType": "uint256",
          "name": "tokenId",
          "type": "uint256"
        }
      ],
      "name": "ERC721InsufficientApproval",
      "type": "error"
    },
    {
      "inputs": [
        {
          "internalType": "address",
          "name": "approver",
          "type": "address"
        }
      ],
      "name": "ERC721InvalidApprover",
      "type": "error"
    },
    {
      "inputs": [
        {
          "internalType": "address",
          "name": "operator",
          "type": "address"
        }
      ],
      "name": "ERC721InvalidOperator",
      "type": "error"
    },
    {
      "inputs": [
        {
          "internalType": "address",
          "name": "owner",
          "type": "address"
        }
      ],
      "name": "ERC721InvalidOwner",
      "type": "error"
    },
    {
      "inputs": [
        {
          "internalType": "address",
          "name": "receiver",
          "type": "address"
        }
      ],
      "name": "ERC721InvalidReceiver",
      "type": "error"
    },
    {
      "inputs": [
        {
          "internalType": "address",
          "name": "sender",
          "type": "address"
        }
      ],
      "name": "ERC721InvalidSender",
      "type": "error"
    },
    {
      "inputs": [
        {
          "internalType": "uint256",
          "name": "tokenId",
          "type": "uint256"
        }
      ],
      "name": "ERC721NonexistentToken",
      "type": "error"
    },
    {
      "anonymous": false,
      "inputs": [
        {
          "indexed": true,
          "internalType": "address",
          "name": "owner",
          "type": "address"
        },
        {
          "indexed": true,
          "internalType": "address",
          "name": "approved",
          "type": "address"
        },
        {
          "indexed": true,
          "internalType": "uint256",
          "name": "tokenId",
          "type": "uint256"
        }
      ],
      "name": "Approval",
      "type": "event"
    },
    {
      "anonymous": false,
      "inputs": [
        {
          "indexed": true,
          "internalType": "address",
          "name": "owner",
          "type": "address"
        },
        {
          "indexed": true,
          "internalType": "address",
          "name": "operator",
          "type": "address"
        },
        {
          "indexed": false,
          "internalType": "bool",
          "name": "approved",
          "type": "bool"
        }
      ],
      "name": "ApprovalForAll",
      "type": "event"
    },
    {
      "anonymous": false,
      "inputs": [
        {
          "indexed": false,
          "internalType": "uint256",
          "name": "_fromTokenId",
          "type": "uint256"
        },
        {
          "indexed": false,
          "internalType": "uint256",
          "name": "_toTokenId",
          "type": "uint256"
        }
      ],
      "name": "BatchMetadataUpdate",
      "type": "event"
    },
    {
      "anonymous": false,
      "inputs": [
        {
          "indexed": true,
          "internalType": "address",
          "name": "owner",
          "type": "address"
        },
        {
          "indexed": true,
          "internalType": "uint256",
          "name": "tokenId",
          "type": "uint256"
        },
        {
          "indexed": false,
          "internalType": "string",
          "name": "tokenURI",
          "type": "string"
        }
      ],
      "name": "ItemCreated",
      "type": "event"
    },
    {
      "anonymous": false,
      "inputs": [
        {
          "indexed": false,
          "internalType": "uint256",
          "name": "_tokenId",
          "type": "uint256"
        }
      ],
      "name": "MetadataUpdate",
      "type": "event"
    },
    {
      "anonymous": false,
      "inputs": [
        {
          "indexed": true,
          "internalType": "address",
          "name": "from",
          "type": "address"
        },
        {
          "indexed": true,
          "internalType": "address",
          "name": "to",
          "type": "address"
        },
        {
          "indexed": true,
          "internalType": "uint256",
          "name": "tokenId",
          "type": "uint256"
        }
      ],
      "name": "Transfer",
      "type": "event"
    },
    {
      "inputs": [
        {
          "internalType": "address",
          "name": "to",
          "type": "address"
        },
        {
          "internalType": "uint256",
          "name": "tokenId",
          "type": "uint256"
        }
      ],
      "name": "approve",
      "outputs": [],
      "stateMutability": "nonpayable",
      "type": "function"
    },
    {
      "inputs": [
        {
          "internalType": "address",
          "name": "owner",
          "type": "address"
        }
      ],
      "name": "balanceOf",
      "outputs": [
        {
          "internalType": "uint256",
          "name": "",
          "type": "uint256"
        }
      ],
      "stateMutability": "view",
      "type": "function"
    },
    {
      "inputs": [
        {
          "internalType": "string",
          "name": "tokenURI",
          "type": "string"
        },
        {
          "internalType": "address",
          "name": "auctionHouse",
          "type": "address"
        }
      ],
      "name": "createItem",
      "outputs": [],
      "stateMutability": "nonpayable",
      "type": "function"
    },
    {
      "inputs": [
        {
          "internalType": "uint256",
          "name": "tokenId",
          "type": "uint256"
        }
      ],
      "name": "getApproved",
      "outputs": [
        {
          "internalType": "address",
          "name": "",
          "type": "address"
        }
      ],
      "stateMutability": "view",
      "type": "function"
    },
    {
      "inputs": [
        {
          "internalType": "address",
          "name": "owner",
          "type": "address"
        },
        {
          "internalType": "address",
          "name": "operator",
          "type": "address"
        }
      ],
      "name": "isApprovedForAll",
      "outputs": [
        {
          "internalType": "bool",
          "name": "",
          "type": "bool"
        }
      ],
      "stateMutability": "view",
      "type": "function"
    },
    {
      "inputs": [],
      "name": "name",
      "outputs": [
        {
          "internalType": "string",
          "name": "",
          "type": "string"
        }
      ],
      "stateMutability": "view",
      "type": "function"
    },
    {
      "inputs": [
        {
          "internalType": "uint256",
          "name": "tokenId",
          "type": "uint256"
        }
      ],
      "name": "ownerOf",
      "outputs": [
        {
          "internalType": "address",
          "name": "",
          "type": "address"
        }
      ],
      "stateMutability": "view",
      "type": "function"
    },
    {
      "inputs": [
        {
          "internalType": "address",
          "name": "from",
          "type": "address"
        },
        {
          "internalType": "address",
          "name": "to",
          "type": "address"
        },
        {
          "internalType": "uint256",
          "name": "tokenId",
          "type": "uint256"
        }
      ],
      "name": "safeTransferFrom",
      "outputs": [],
      "stateMutability": "nonpayable",
      "type": "function"
    },
    {
      "inputs": [
        {
          "internalType": "address",
          "name": "from",
          "type": "address"
        },
        {
          "internalType": "address",
          "name": "to",
          "type": "address"
        },
        {
          "internalType": "uint256",
          "name": "tokenId",
          "type": "uint256"
        },
        {
          "internalType": "bytes",
          "name": "data",
          "type": "bytes"
        }
      ],
      "name": "safeTransferFrom",
      "outputs": [],
      "stateMutability": "nonpayable",
      "type": "function"
    },
    {
      "inputs": [
        {
          "internalType": "address",
          "name": "operator",
          "type": "address"
        },
        {
          "internalType": "bool",
          "name": "approved",
          "type": "bool"
        }
      ],
      "name": "setApprovalForAll",
      "outputs": [],
      "stateMutability": "nonpayable",
      "type": "function"
    },
    {
      "inputs": [
        {
          "internalType": "bytes4",
          "name": "interfaceId",
          "type": "bytes4"
        }
      ],
      "name": "supportsInterface",
      "outputs": [
        {
          "internalType": "bool",
          "name": "",
          "type": "bool"
        }
      ],
      "stateMutability": "view",
      "type": "function"
    },
    {
      "inputs": [],
      "name": "symbol",
      "outputs": [
        {
          "internalType": "string",
          "name": "",
          "type": "string"
        }
      ],
      "stateMutability": "view",
      "type": "function"
    },
    {
      "inputs": [
        {
          "internalType": "uint256",
          "name": "tokenId",
          "type": "uint256"
        }
      ],
      "name": "tokenURI",
      "outputs": [
        {
          "internalType": "string",
          "name": "",
          "type": "string"
        }
      ],
      "stateMutability": "view",
      "type": "function"
    },
    {
      "inputs": [
        {
          "internalType": "address",
          "name": "from",
          "type": "address"
        },
        {
          "internalType": "address",
          "name": "to",
          "type": "address"
        },
        {
          "internalType": "uint256",
          "name": "tokenId",
          "type": "uint256"
        }
      ],
      "name": "transferFrom",
      "outputs": [],
      "stateMutability": "nonpayable",
      "type": "function"
    }
  ],
  "bytecode": "0x60806040523480156200001157600080fd5b5060405162002ea438038062002ea48339818101604052810190620000379190620003ab565b828281600090816200004a919062000690565b5080600190816200005c919062000690565b5050506000808273ffffffffffffffffffffffffffffffffffffffff163386866040516024016200009093929190620007da565b6040516020818303038152906040527f35a9c596000000000000000000000000000000000000000000000000000000007bffffffffffffffffffffffffffffffffffffffffffffffffffffffff19166020820180517bffffffffffffffffffffffffffffffffffffffffffffffffffffffff83818316178352505050506040516200011c919062000872565b6000604051808303816000865af19150503d80600081146200015b576040519150601f19603f3d011682016040523d82523d6000602084013e62000160565b606091505b509150915081620001a8576040517f08c379a00000000000000000000000000000000000000000000000000000000081526004016200019f9062000901565b60405180910390fd5b505050505062000923565b6000604051905090565b600080fd5b600080fd5b600080fd5b600080fd5b6000601f19601f8301169050919050565b7f4e487b7100000000000000000000000000000000000000000000000000000000600052604160045260246000fd5b6200021c82620001d1565b810181811067ffffffffffffffff821117156200023e576200023d620001e2565b5b80604052505050565b600062000253620001b3565b905062000261828262000211565b919050565b600067ffffffffffffffff821115620002845762000283620001e2565b5b6200028f82620001d1565b9050602081019050919050565b60005b83811015620002bc5780820151818401526020810190506200029f565b60008484015250505050565b6000620002df620002d98462000266565b62000247565b905082815260208101848484011115620002fe57620002fd620001cc565b5b6200030b8482856200029c565b509392505050565b600082601f8301126200032b576200032a620001c7565b5b81516200033d848260208601620002c8565b91505092915050565b600073ffffffffffffffffffffffffffffffffffffffff82169050919050565b6000620003738262000346565b9050919050565b620003858162000366565b81146200039157600080fd5b50565b600081519050620003a5816200037a565b92915050565b600080600060608486031215620003c757620003c6620001bd565b5b600084015167ffffffffffffffff811115620003e857620003e7620001c2565b5b620003f68682870162000313565b935050602084015167ffffffffffffffff8111156200041a5762000419620001c2565b5b620004288682870162000313565b92505060406200043b8682870162000394565b9150509250925092565b600081519050919050565b7f4e487b7100000000000000000000000000000000000000000000000000000000600052602260045260246000fd5b600060028204905060018216806200049857607f821691505b602082108103620004ae57620004ad62000450565b5b50919050565b60008190508160005260206000209050919050565b60006020601f8301049050919050565b600082821b905092915050565b600060088302620005187fffffffffffffffffffffffffffffffffffffffffffffffffffffffffffffffff82620004d9565b620005248683620004d9565b95508019841693508086168417925050509392505050565b6000819050919050565b6000819050919050565b6000620005716200056b62000565846200053c565b62000546565b6200053c565b9050919050565b6000819050919050565b6200058d8362000550565b620005a56200059c8262000578565b848454620004e6565b825550505050565b600090565b620005bc620005ad565b620005c981848462000582565b505050565b5b81811015620005f157620005e5600082620005b2565b600181019050620005cf565b5050565b601f82111562000640576200060a81620004b4565b6200061584620004c9565b8101602085101562000625578190505b6200063d6200063485620004c9565b830182620005ce565b50505b505050565b600082821c905092915050565b6000620006656000198460080262000645565b1980831691505092915050565b600062000680838362000652565b9150826002028217905092915050565b6200069b8262000445565b67ffffffffffffffff811115620006b757620006b6620001e2565b5b620006c382546200047f565b620006d0828285620005f5565b600060209050601f831160018114620007085760008415620006f3578287015190505b620006ff858262000672565b8655506200076f565b601f1984166200071886620004b4565b60005b8281101562000742578489015182556001820191506020850194506020810190506200071b565b868310156200076257848901516200075e601f89168262000652565b8355505b6001600288020188555050505b505050505050565b620007828162000366565b82525050565b600082825260208201905092915050565b6000620007a68262000445565b620007b2818562000788565b9350620007c48185602086016200029c565b620007cf81620001d1565b840191505092915050565b6000606082019050620007f1600083018662000777565b818103602083015262000805818562000799565b905081810360408301526200081b818462000799565b9050949350505050565b600081519050919050565b600081905092915050565b6000620008488262000825565b62000854818562000830565b9350620008668185602086016200029c565b80840191505092915050565b60006200088082846200083b565b915081905092915050565b7f41756374696f6e486f7573653a20637265617465436f6c6c656374696f6e206660008201527f61696c6564000000000000000000000000000000000000000000000000000000602082015250565b6000620008e960258362000788565b9150620008f6826200088b565b604082019050919050565b600060208201905081810360008301526200091c81620008da565b9050919050565b61257180620009336000396000f3fe608060405234801561001057600080fd5b50600436106100ea5760003560e01c806370a082311161008c578063b88d4fde11610066578063b88d4fde1461025b578063c87b56dd14610277578063e985e9c5146102a7578063fb54453b146102d7576100ea565b806370a08231146101f157806395d89b4114610221578063a22cb4651461023f576100ea565b8063095ea7b3116100c8578063095ea7b31461016d57806323b872dd1461018957806342842e0e146101a55780636352211e146101c1576100ea565b806301ffc9a7146100ef57806306fdde031461011f578063081812fc1461013d575b600080fd5b61010960048036038101906101049190611938565b6102f3565b6040516101169190611980565b60405180910390f35b610127610354565b6040516101349190611a2b565b60405180910390f35b61015760048036038101906101529190611a83565b6103e6565b6040516101649190611af1565b60405180910390f35b61018760048036038101906101829190611b38565b610402565b005b6101a3600480360381019061019e9190611b78565b610418565b005b6101bf60048036038101906101ba9190611b78565b61051a565b005b6101db60048036038101906101d69190611a83565b61053a565b6040516101e89190611af1565b60405180910390f35b61020b60048036038101906102069190611bcb565b61054c565b6040516102189190611c07565b60405180910390f35b610229610606565b6040516102369190611a2b565b60405180910390f35b61025960048036038101906102549190611c4e565b610698565b005b61027560048036038101906102709190611dc3565b6106ae565b005b610291600480360381019061028c9190611a83565b6106cb565b60405161029e9190611a2b565b60405180910390f35b6102c160048036038101906102bc9190611e46565b6107de565b6040516102ce9190611980565b60405180910390f35b6102f160048036038101906102ec9190611f27565b610872565b005b6000634906490660e01b7bffffffffffffffffffffffffffffffffffffffffffffffffffffffff1916827bffffffffffffffffffffffffffffffffffffffffffffffffffffffff1916148061034d575061034c826109aa565b5b9050919050565b60606000805461036390611fb2565b80601f016020809104026020016040519081016040528092919081815260200182805461038f90611fb2565b80156103dc5780601f106103b1576101008083540402835291602001916103dc565b820191906000526020600020905b8154815290600101906020018083116103bf57829003601f168201915b5050505050905090565b60006103f182610a8c565b506103fb82610b14565b9050919050565b610414828261040f610b51565b610b59565b5050565b600073ffffffffffffffffffffffffffffffffffffffff168273ffffffffffffffffffffffffffffffffffffffff160361048a5760006040517f64a0ae920000000000000000000000000000000000000000000000000000000081526004016104819190611af1565b60405180910390fd5b600061049e8383610499610b51565b610b6b565b90508373ffffffffffffffffffffffffffffffffffffffff168173ffffffffffffffffffffffffffffffffffffffff1614610514578382826040517f64283d7b00000000000000000000000000000000000000000000000000000000815260040161050b93929190611fe3565b60405180910390fd5b50505050565b610535838383604051806020016040528060008152506106ae565b505050565b600061054582610a8c565b9050919050565b60008073ffffffffffffffffffffffffffffffffffffffff168273ffffffffffffffffffffffffffffffffffffffff16036105bf5760006040517f89c62b640000000000000000000000000000000000000000000000000000000081526004016105b69190611af1565b60405180910390fd5b600360008373ffffffffffffffffffffffffffffffffffffffff1673ffffffffffffffffffffffffffffffffffffffff168152602001908152602001600020549050919050565b60606001805461061590611fb2565b80601f016020809104026020016040519081016040528092919081815260200182805461064190611fb2565b801561068e5780601f106106635761010080835404028352916020019161068e565b820191906000526020600020905b81548152906001019060200180831161067157829003601f168201915b5050505050905090565b6106aa6106a3610b51565b8383610d85565b5050565b6106b9848484610418565b6106c584848484610ef4565b50505050565b60606106d682610a8c565b5060006006600084815260200190815260200160002080546106f790611fb2565b80601f016020809104026020016040519081016040528092919081815260200182805461072390611fb2565b80156107705780601f1061074557610100808354040283529160200191610770565b820191906000526020600020905b81548152906001019060200180831161075357829003601f168201915b5050505050905060006107816110ab565b905060008151036107965781925050506107d9565b6000825111156107cb5780826040516020016107b3929190612056565b604051602081830303815290604052925050506107d9565b6107d4846110c2565b925050505b919050565b6000600560008473ffffffffffffffffffffffffffffffffffffffff1673ffffffffffffffffffffffffffffffffffffffff16815260200190815260200160002060008373ffffffffffffffffffffffffffffffffffffffff1673ffffffffffffffffffffffffffffffffffffffff16815260200190815260200160002060009054906101000a900460ff16905092915050565b61087e3360075461112b565b61088a60075483611149565b6000808273ffffffffffffffffffffffffffffffffffffffff1633600754866040516024016108bb9392919061207a565b6040516020818303038152906040527fa7806320000000000000000000000000000000000000000000000000000000007bffffffffffffffffffffffffffffffffffffffffffffffffffffffff19166020820180517bffffffffffffffffffffffffffffffffffffffffffffffffffffffff838183161783525050505060405161094591906120ff565b6000604051808303816000865af19150503d8060008114610982576040519150601f19603f3d011682016040523d82523d6000602084013e610987565b606091505b50915091506007600081548092919061099f90612145565b919050555050505050565b60007f80ac58cd000000000000000000000000000000000000000000000000000000007bffffffffffffffffffffffffffffffffffffffffffffffffffffffff1916827bffffffffffffffffffffffffffffffffffffffffffffffffffffffff19161480610a7557507f5b5e139f000000000000000000000000000000000000000000000000000000007bffffffffffffffffffffffffffffffffffffffffffffffffffffffff1916827bffffffffffffffffffffffffffffffffffffffffffffffffffffffff1916145b80610a855750610a84826111a5565b5b9050919050565b600080610a988361120f565b9050600073ffffffffffffffffffffffffffffffffffffffff168173ffffffffffffffffffffffffffffffffffffffff1603610b0b57826040517f7e273289000000000000000000000000000000000000000000000000000000008152600401610b029190611c07565b60405180910390fd5b80915050919050565b60006004600083815260200190815260200160002060009054906101000a900473ffffffffffffffffffffffffffffffffffffffff169050919050565b600033905090565b610b66838383600161124c565b505050565b600080610b778461120f565b9050600073ffffffffffffffffffffffffffffffffffffffff168373ffffffffffffffffffffffffffffffffffffffff1614610bb957610bb8818486611411565b5b600073ffffffffffffffffffffffffffffffffffffffff168173ffffffffffffffffffffffffffffffffffffffff1614610c4a57610bfb60008560008061124c565b6001600360008373ffffffffffffffffffffffffffffffffffffffff1673ffffffffffffffffffffffffffffffffffffffff168152602001908152602001600020600082825403925050819055505b600073ffffffffffffffffffffffffffffffffffffffff168573ffffffffffffffffffffffffffffffffffffffff1614610ccd576001600360008773ffffffffffffffffffffffffffffffffffffffff1673ffffffffffffffffffffffffffffffffffffffff168152602001908152602001600020600082825401925050819055505b846002600086815260200190815260200160002060006101000a81548173ffffffffffffffffffffffffffffffffffffffff021916908373ffffffffffffffffffffffffffffffffffffffff160217905550838573ffffffffffffffffffffffffffffffffffffffff168273ffffffffffffffffffffffffffffffffffffffff167fddf252ad1be2c89b69c2b068fc378daa952ba7f163c4a11628f55a4df523b3ef60405160405180910390a4809150509392505050565b600073ffffffffffffffffffffffffffffffffffffffff168273ffffffffffffffffffffffffffffffffffffffff1603610df657816040517f5b08ba18000000000000000000000000000000000000000000000000000000008152600401610ded9190611af1565b60405180910390fd5b80600560008573ffffffffffffffffffffffffffffffffffffffff1673ffffffffffffffffffffffffffffffffffffffff16815260200190815260200160002060008473ffffffffffffffffffffffffffffffffffffffff1673ffffffffffffffffffffffffffffffffffffffff16815260200190815260200160002060006101000a81548160ff0219169083151502179055508173ffffffffffffffffffffffffffffffffffffffff168373ffffffffffffffffffffffffffffffffffffffff167f17307eab39ab6107e8899845ad3d59bd9653f200f220920489ca2b5937696c3183604051610ee79190611980565b60405180910390a3505050565b60008373ffffffffffffffffffffffffffffffffffffffff163b11156110a5578273ffffffffffffffffffffffffffffffffffffffff1663150b7a02610f38610b51565b8685856040518563ffffffff1660e01b8152600401610f5a94939291906121d7565b6020604051808303816000875af1925050508015610f9657506040513d601f19601f82011682018060405250810190610f939190612238565b60015b61101a573d8060008114610fc6576040519150601f19603f3d011682016040523d82523d6000602084013e610fcb565b606091505b50600081510361101257836040517f64a0ae920000000000000000000000000000000000000000000000000000000081526004016110099190611af1565b60405180910390fd5b805181602001fd5b63150b7a0260e01b7bffffffffffffffffffffffffffffffffffffffffffffffffffffffff1916817bffffffffffffffffffffffffffffffffffffffffffffffffffffffff1916146110a357836040517f64a0ae9200000000000000000000000000000000000000000000000000000000815260040161109a9190611af1565b60405180910390fd5b505b50505050565b606060405180602001604052806000815250905090565b60606110cd82610a8c565b5060006110d86110ab565b905060008151116110f85760405180602001604052806000815250611123565b80611102846114d5565b604051602001611113929190612056565b6040516020818303038152906040525b915050919050565b6111458282604051806020016040528060008152506115a3565b5050565b806006600084815260200190815260200160002090816111699190612411565b507ff8e1a15aba9398e019f0b49df1a4fde98ee17ae345cb5f6b5e2c27f5033e8ce7826040516111999190611c07565b60405180910390a15050565b60007f01ffc9a7000000000000000000000000000000000000000000000000000000007bffffffffffffffffffffffffffffffffffffffffffffffffffffffff1916827bffffffffffffffffffffffffffffffffffffffffffffffffffffffff1916149050919050565b60006002600083815260200190815260200160002060009054906101000a900473ffffffffffffffffffffffffffffffffffffffff169050919050565b80806112855750600073ffffffffffffffffffffffffffffffffffffffff168273ffffffffffffffffffffffffffffffffffffffff1614155b156113b957600061129584610a8c565b9050600073ffffffffffffffffffffffffffffffffffffffff168373ffffffffffffffffffffffffffffffffffffffff161415801561130057508273ffffffffffffffffffffffffffffffffffffffff168173ffffffffffffffffffffffffffffffffffffffff1614155b8015611313575061131181846107de565b155b1561135557826040517fa9fbf51f00000000000000000000000000000000000000000000000000000000815260040161134c9190611af1565b60405180910390fd5b81156113b757838573ffffffffffffffffffffffffffffffffffffffff168273ffffffffffffffffffffffffffffffffffffffff167f8c5be1e5ebec7d5bd14f71427d1e84f3dd0314c0f7b2291e5b200ac8c7c3b92560405160405180910390a45b505b836004600085815260200190815260200160002060006101000a81548173ffffffffffffffffffffffffffffffffffffffff021916908373ffffffffffffffffffffffffffffffffffffffff16021790555050505050565b61141c8383836115bf565b6114d057600073ffffffffffffffffffffffffffffffffffffffff168373ffffffffffffffffffffffffffffffffffffffff160361149157806040517f7e2732890000000000000000000000000000000000000000000000000000000081526004016114889190611c07565b60405180910390fd5b81816040517f177e802f0000000000000000000000000000000000000000000000000000000081526004016114c79291906124e3565b60405180910390fd5b505050565b6060600060016114e484611680565b01905060008167ffffffffffffffff81111561150357611502611c98565b5b6040519080825280601f01601f1916602001820160405280156115355781602001600182028036833780820191505090505b509050600082602001820190505b600115611598578080600190039150507f3031323334353637383961626364656600000000000000000000000000000000600a86061a8153600a858161158c5761158b61250c565b5b04945060008503611543575b819350505050919050565b6115ad83836117d3565b6115ba6000848484610ef4565b505050565b60008073ffffffffffffffffffffffffffffffffffffffff168373ffffffffffffffffffffffffffffffffffffffff161415801561167757508273ffffffffffffffffffffffffffffffffffffffff168473ffffffffffffffffffffffffffffffffffffffff161480611638575061163784846107de565b5b8061167657508273ffffffffffffffffffffffffffffffffffffffff1661165e83610b14565b73ffffffffffffffffffffffffffffffffffffffff16145b5b90509392505050565b600080600090507a184f03e93ff9f4daa797ed6e38ed64bf6a1f01000000000000000083106116de577a184f03e93ff9f4daa797ed6e38ed64bf6a1f01000000000000000083816116d4576116d361250c565b5b0492506040810190505b6d04ee2d6d415b85acef8100000000831061171b576d04ee2d6d415b85acef810000000083816117115761171061250c565b5b0492506020810190505b662386f26fc10000831061174a57662386f26fc1000083816117405761173f61250c565b5b0492506010810190505b6305f5e1008310611773576305f5e10083816117695761176861250c565b5b0492506008810190505b612710831061179857612710838161178e5761178d61250c565b5b0492506004810190505b606483106117bb57606483816117b1576117b061250c565b5b0492506002810190505b600a83106117ca576001810190505b80915050919050565b600073ffffffffffffffffffffffffffffffffffffffff168273ffffffffffffffffffffffffffffffffffffffff16036118455760006040517f64a0ae9200000000000000000000000000000000000000000000000000000000815260040161183c9190611af1565b60405180910390fd5b600061185383836000610b6b565b9050600073ffffffffffffffffffffffffffffffffffffffff168173ffffffffffffffffffffffffffffffffffffffff16146118c75760006040517f73c6ac6e0000000000000000000000000000000000000000000000000000000081526004016118be9190611af1565b60405180910390fd5b505050565b6000604051905090565b600080fd5b600080fd5b60007fffffffff0000000000000000000000000000000000000000000000000000000082169050919050565b611915816118e0565b811461192057600080fd5b50565b6000813590506119328161190c565b92915050565b60006020828403121561194e5761194d6118d6565b5b600061195c84828501611923565b91505092915050565b60008115159050919050565b61197a81611965565b82525050565b60006020820190506119956000830184611971565b92915050565b600081519050919050565b600082825260208201905092915050565b60005b838110156119d55780820151818401526020810190506119ba565b60008484015250505050565b6000601f19601f8301169050919050565b60006119fd8261199b565b611a0781856119a6565b9350611a178185602086016119b7565b611a20816119e1565b840191505092915050565b60006020820190508181036000830152611a4581846119f2565b905092915050565b6000819050919050565b611a6081611a4d565b8114611a6b57600080fd5b50565b600081359050611a7d81611a57565b92915050565b600060208284031215611a9957611a986118d6565b5b6000611aa784828501611a6e565b91505092915050565b600073ffffffffffffffffffffffffffffffffffffffff82169050919050565b6000611adb82611ab0565b9050919050565b611aeb81611ad0565b82525050565b6000602082019050611b066000830184611ae2565b92915050565b611b1581611ad0565b8114611b2057600080fd5b50565b600081359050611b3281611b0c565b92915050565b60008060408385031215611b4f57611b4e6118d6565b5b6000611b5d85828601611b23565b9250506020611b6e85828601611a6e565b9150509250929050565b600080600060608486031215611b9157611b906118d6565b5b6000611b9f86828701611b23565b9350506020611bb086828701611b23565b9250506040611bc186828701611a6e565b9150509250925092565b600060208284031215611be157611be06118d6565b5b6000611bef84828501611b23565b91505092915050565b611c0181611a4d565b82525050565b6000602082019050611c1c6000830184611bf8565b92915050565b611c2b81611965565b8114611c3657600080fd5b50565b600081359050611c4881611c22565b92915050565b60008060408385031215611c6557611c646118d6565b5b6000611c7385828601611b23565b9250506020611c8485828601611c39565b9150509250929050565b600080fd5b600080fd5b7f4e487b7100000000000000000000000000000000000000000000000000000000600052604160045260246000fd5b611cd0826119e1565b810181811067ffffffffffffffff82111715611cef57611cee611c98565b5b80604052505050565b6000611d026118cc565b9050611d0e8282611cc7565b919050565b600067ffffffffffffffff821115611d2e57611d2d611c98565b5b611d37826119e1565b9050602081019050919050565b82818337600083830152505050565b6000611d66611d6184611d13565b611cf8565b905082815260208101848484011115611d8257611d81611c93565b5b611d8d848285611d44565b509392505050565b600082601f830112611daa57611da9611c8e565b5b8135611dba848260208601611d53565b91505092915050565b60008060008060808587031215611ddd57611ddc6118d6565b5b6000611deb87828801611b23565b9450506020611dfc87828801611b23565b9350506040611e0d87828801611a6e565b925050606085013567ffffffffffffffff811115611e2e57611e2d6118db565b5b611e3a87828801611d95565b91505092959194509250565b60008060408385031215611e5d57611e5c6118d6565b5b6000611e6b85828601611b23565b9250506020611e7c85828601611b23565b9150509250929050565b600067ffffffffffffffff821115611ea157611ea0611c98565b5b611eaa826119e1565b9050602081019050919050565b6000611eca611ec584611e86565b611cf8565b905082815260208101848484011115611ee657611ee5611c93565b5b611ef1848285611d44565b509392505050565b600082601f830112611f0e57611f0d611c8e565b5b8135611f1e848260208601611eb7565b91505092915050565b60008060408385031215611f3e57611f3d6118d6565b5b600083013567ffffffffffffffff811115611f5c57611f5b6118db565b5b611f6885828601611ef9565b9250506020611f7985828601611b23565b9150509250929050565b7f4e487b7100000000000000000000000000000000000000000000000000000000600052602260045260246000fd5b60006002820490506001821680611fca57607f821691505b602082108103611fdd57611fdc611f83565b5b50919050565b6000606082019050611ff86000830186611ae2565b6120056020830185611bf8565b6120126040830184611ae2565b949350505050565b600081905092915050565b60006120308261199b565b61203a818561201a565b935061204a8185602086016119b7565b80840191505092915050565b60006120628285612025565b915061206e8284612025565b91508190509392505050565b600060608201905061208f6000830186611ae2565b61209c6020830185611bf8565b81810360408301526120ae81846119f2565b9050949350505050565b600081519050919050565b600081905092915050565b60006120d9826120b8565b6120e381856120c3565b93506120f38185602086016119b7565b80840191505092915050565b600061210b82846120ce565b915081905092915050565b7f4e487b7100000000000000000000000000000000000000000000000000000000600052601160045260246000fd5b600061215082611a4d565b91507fffffffffffffffffffffffffffffffffffffffffffffffffffffffffffffffff820361218257612181612116565b5b600182019050919050565b600082825260208201905092915050565b60006121a9826120b8565b6121b3818561218d565b93506121c38185602086016119b7565b6121cc816119e1565b840191505092915050565b60006080820190506121ec6000830187611ae2565b6121f96020830186611ae2565b6122066040830185611bf8565b8181036060830152612218818461219e565b905095945050505050565b6000815190506122328161190c565b92915050565b60006020828403121561224e5761224d6118d6565b5b600061225c84828501612223565b91505092915050565b60008190508160005260206000209050919050565b60006020601f8301049050919050565b600082821b905092915050565b6000600883026122c77fffffffffffffffffffffffffffffffffffffffffffffffffffffffffffffffff8261228a565b6122d1868361228a565b95508019841693508086168417925050509392505050565b6000819050919050565b600061230e61230961230484611a4d565b6122e9565b611a4d565b9050919050565b6000819050919050565b612328836122f3565b61233c61233482612315565b848454612297565b825550505050565b600090565b612351612344565b61235c81848461231f565b505050565b5b8181101561238057612375600082612349565b600181019050612362565b5050565b601f8211156123c55761239681612265565b61239f8461227a565b810160208510156123ae578190505b6123c26123ba8561227a565b830182612361565b50505b505050565b600082821c905092915050565b60006123e8600019846008026123ca565b1980831691505092915050565b600061240183836123d7565b9150826002028217905092915050565b61241a8261199b565b67ffffffffffffffff81111561243357612432611c98565b5b61243d8254611fb2565b612448828285612384565b600060209050601f83116001811461247b5760008415612469578287015190505b61247385826123f5565b8655506124db565b601f19841661248986612265565b60005b828110156124b15784890151825560018201915060208501945060208101905061248c565b868310156124ce57848901516124ca601f8916826123d7565b8355505b6001600288020188555050505b505050505050565b60006040820190506124f86000830185611ae2565b6125056020830184611bf8565b9392505050565b7f4e487b7100000000000000000000000000000000000000000000000000000000600052601260045260246000fdfea264697066735822122029fedbdedf7f85671af9b22417481e227f6e4cf37dc0a076bf17167a9351834464736f6c63430008140033",
  "linkReferences": {},
  "deployedLinkReferences": {}
}