{
  "_format": "hh-sol-artifact-1",
  "contractName": "DigitalItem",
  "sourceName": "contracts/DigitalItem.sol",
  "abi": [
    {
      "inputs": [
        {
          "internalType": "string",
          "name": "name",
          "type": "string"
        },
        {
          "internalType": "string",
          "name": "symbol",
          "type": "string"
        },
        {
          "internalType": "address",
          "name": "auctionHouseAddress",
          "type": "address"
        }
      ],
      "stateMutability": "nonpayable",
      "type": "constructor"
    },
    {
      "inputs": [
        {
          "internalType": "address",
          "name": "sender",
          "type": "address"
        },
        {
          "internalType": "uint256",
          "name": "tokenId",
          "type": "uint256"
        },
        {
          "internalType": "address",
          "name": "owner",
          "type": "address"
        }
      ],
      "name": "ERC721IncorrectOwner",
      "type": "error"
    },
    {
      "inputs": [
        {
          "internalType": "address",
          "name": "operator",
          "type": "address"
        },
        {
          "internalType": "uint256",
          "name": "tokenId",
          "type": "uint256"
        }
      ],
      "name": "ERC721InsufficientApproval",
      "type": "error"
    },
    {
      "inputs": [
        {
          "internalType": "address",
          "name": "approver",
          "type": "address"
        }
      ],
      "name": "ERC721InvalidApprover",
      "type": "error"
    },
    {
      "inputs": [
        {
          "internalType": "address",
          "name": "operator",
          "type": "address"
        }
      ],
      "name": "ERC721InvalidOperator",
      "type": "error"
    },
    {
      "inputs": [
        {
          "internalType": "address",
          "name": "owner",
          "type": "address"
        }
      ],
      "name": "ERC721InvalidOwner",
      "type": "error"
    },
    {
      "inputs": [
        {
          "internalType": "address",
          "name": "receiver",
          "type": "address"
        }
      ],
      "name": "ERC721InvalidReceiver",
      "type": "error"
    },
    {
      "inputs": [
        {
          "internalType": "address",
          "name": "sender",
          "type": "address"
        }
      ],
      "name": "ERC721InvalidSender",
      "type": "error"
    },
    {
      "inputs": [
        {
          "internalType": "uint256",
          "name": "tokenId",
          "type": "uint256"
        }
      ],
      "name": "ERC721NonexistentToken",
      "type": "error"
    },
    {
      "anonymous": false,
      "inputs": [
        {
          "indexed": true,
          "internalType": "address",
          "name": "owner",
          "type": "address"
        },
        {
          "indexed": true,
          "internalType": "address",
          "name": "approved",
          "type": "address"
        },
        {
          "indexed": true,
          "internalType": "uint256",
          "name": "tokenId",
          "type": "uint256"
        }
      ],
      "name": "Approval",
      "type": "event"
    },
    {
      "anonymous": false,
      "inputs": [
        {
          "indexed": true,
          "internalType": "address",
          "name": "owner",
          "type": "address"
        },
        {
          "indexed": true,
          "internalType": "address",
          "name": "operator",
          "type": "address"
        },
        {
          "indexed": false,
          "internalType": "bool",
          "name": "approved",
          "type": "bool"
        }
      ],
      "name": "ApprovalForAll",
      "type": "event"
    },
    {
      "anonymous": false,
      "inputs": [
        {
          "indexed": false,
          "internalType": "uint256",
          "name": "_fromTokenId",
          "type": "uint256"
        },
        {
          "indexed": false,
          "internalType": "uint256",
          "name": "_toTokenId",
          "type": "uint256"
        }
      ],
      "name": "BatchMetadataUpdate",
      "type": "event"
    },
    {
      "anonymous": false,
      "inputs": [
        {
          "indexed": false,
          "internalType": "uint256",
          "name": "_tokenId",
          "type": "uint256"
        }
      ],
      "name": "MetadataUpdate",
      "type": "event"
    },
    {
      "anonymous": false,
      "inputs": [
        {
          "indexed": true,
          "internalType": "address",
          "name": "from",
          "type": "address"
        },
        {
          "indexed": true,
          "internalType": "address",
          "name": "to",
          "type": "address"
        },
        {
          "indexed": true,
          "internalType": "uint256",
          "name": "tokenId",
          "type": "uint256"
        }
      ],
      "name": "Transfer",
      "type": "event"
    },
    {
      "inputs": [
        {
          "internalType": "address",
          "name": "to",
          "type": "address"
        },
        {
          "internalType": "uint256",
          "name": "tokenId",
          "type": "uint256"
        }
      ],
      "name": "approve",
      "outputs": [],
      "stateMutability": "nonpayable",
      "type": "function"
    },
    {
      "inputs": [
        {
          "internalType": "uint256",
          "name": "tokenId",
          "type": "uint256"
        },
        {
          "internalType": "uint256",
          "name": "startPrice",
          "type": "uint256"
        },
        {
          "internalType": "uint256",
          "name": "endTime",
          "type": "uint256"
        },
        {
          "internalType": "string",
          "name": "tokenURI",
          "type": "string"
        }
      ],
      "name": "auctionItem",
      "outputs": [],
      "stateMutability": "nonpayable",
      "type": "function"
    },
    {
      "inputs": [
        {
          "internalType": "address",
          "name": "owner",
          "type": "address"
        }
      ],
      "name": "balanceOf",
      "outputs": [
        {
          "internalType": "uint256",
          "name": "",
          "type": "uint256"
        }
      ],
      "stateMutability": "view",
      "type": "function"
    },
    {
      "inputs": [
        {
          "internalType": "string",
          "name": "tokenURI",
          "type": "string"
        }
      ],
      "name": "createItem",
      "outputs": [],
      "stateMutability": "nonpayable",
      "type": "function"
    },
    {
      "inputs": [
        {
          "internalType": "uint256",
          "name": "tokenId",
          "type": "uint256"
        }
      ],
      "name": "getApproved",
      "outputs": [
        {
          "internalType": "address",
          "name": "",
          "type": "address"
        }
      ],
      "stateMutability": "view",
      "type": "function"
    },
    {
      "inputs": [
        {
          "internalType": "address",
          "name": "owner",
          "type": "address"
        },
        {
          "internalType": "address",
          "name": "operator",
          "type": "address"
        }
      ],
      "name": "isApprovedForAll",
      "outputs": [
        {
          "internalType": "bool",
          "name": "",
          "type": "bool"
        }
      ],
      "stateMutability": "view",
      "type": "function"
    },
    {
      "inputs": [],
      "name": "name",
      "outputs": [
        {
          "internalType": "string",
          "name": "",
          "type": "string"
        }
      ],
      "stateMutability": "view",
      "type": "function"
    },
    {
      "inputs": [
        {
          "internalType": "uint256",
          "name": "tokenId",
          "type": "uint256"
        }
      ],
      "name": "ownerOf",
      "outputs": [
        {
          "internalType": "address",
          "name": "",
          "type": "address"
        }
      ],
      "stateMutability": "view",
      "type": "function"
    },
    {
      "inputs": [
        {
          "internalType": "address",
          "name": "from",
          "type": "address"
        },
        {
          "internalType": "address",
          "name": "to",
          "type": "address"
        },
        {
          "internalType": "uint256",
          "name": "tokenId",
          "type": "uint256"
        }
      ],
      "name": "safeTransferFrom",
      "outputs": [],
      "stateMutability": "nonpayable",
      "type": "function"
    },
    {
      "inputs": [
        {
          "internalType": "address",
          "name": "from",
          "type": "address"
        },
        {
          "internalType": "address",
          "name": "to",
          "type": "address"
        },
        {
          "internalType": "uint256",
          "name": "tokenId",
          "type": "uint256"
        },
        {
          "internalType": "bytes",
          "name": "data",
          "type": "bytes"
        }
      ],
      "name": "safeTransferFrom",
      "outputs": [],
      "stateMutability": "nonpayable",
      "type": "function"
    },
    {
      "inputs": [
        {
          "internalType": "address",
          "name": "operator",
          "type": "address"
        },
        {
          "internalType": "bool",
          "name": "approved",
          "type": "bool"
        }
      ],
      "name": "setApprovalForAll",
      "outputs": [],
      "stateMutability": "nonpayable",
      "type": "function"
    },
    {
      "inputs": [
        {
          "internalType": "bytes4",
          "name": "interfaceId",
          "type": "bytes4"
        }
      ],
      "name": "supportsInterface",
      "outputs": [
        {
          "internalType": "bool",
          "name": "",
          "type": "bool"
        }
      ],
      "stateMutability": "view",
      "type": "function"
    },
    {
      "inputs": [],
      "name": "symbol",
      "outputs": [
        {
          "internalType": "string",
          "name": "",
          "type": "string"
        }
      ],
      "stateMutability": "view",
      "type": "function"
    },
    {
      "inputs": [
        {
          "internalType": "uint256",
          "name": "tokenId",
          "type": "uint256"
        }
      ],
      "name": "tokenURI",
      "outputs": [
        {
          "internalType": "string",
          "name": "",
          "type": "string"
        }
      ],
      "stateMutability": "view",
      "type": "function"
    },
    {
      "inputs": [
        {
          "internalType": "address",
          "name": "from",
          "type": "address"
        },
        {
          "internalType": "address",
          "name": "to",
          "type": "address"
        },
        {
          "internalType": "uint256",
          "name": "tokenId",
          "type": "uint256"
        }
      ],
      "name": "transferFrom",
      "outputs": [],
      "stateMutability": "nonpayable",
      "type": "function"
    }
  ],
  "bytecode": "0x60806040523480156200001157600080fd5b5060405162002e4e38038062002e4e833981810160405281019062000037919062000336565b828281600090816200004a91906200061b565b5080600190816200005c91906200061b565b50505080600860006101000a81548173ffffffffffffffffffffffffffffffffffffffff021916908373ffffffffffffffffffffffffffffffffffffffff160217905550600860009054906101000a900473ffffffffffffffffffffffffffffffffffffffff1673ffffffffffffffffffffffffffffffffffffffff166335a9c5963385856040518463ffffffff1660e01b8152600401620001019392919062000765565b600060405180830381600087803b1580156200011c57600080fd5b505af115801562000131573d6000803e3d6000fd5b50505050505050620007b0565b6000604051905090565b600080fd5b600080fd5b600080fd5b600080fd5b6000601f19601f8301169050919050565b7f4e487b7100000000000000000000000000000000000000000000000000000000600052604160045260246000fd5b620001a7826200015c565b810181811067ffffffffffffffff82111715620001c957620001c86200016d565b5b80604052505050565b6000620001de6200013e565b9050620001ec82826200019c565b919050565b600067ffffffffffffffff8211156200020f576200020e6200016d565b5b6200021a826200015c565b9050602081019050919050565b60005b83811015620002475780820151818401526020810190506200022a565b60008484015250505050565b60006200026a6200026484620001f1565b620001d2565b90508281526020810184848401111562000289576200028862000157565b5b6200029684828562000227565b509392505050565b600082601f830112620002b657620002b562000152565b5b8151620002c884826020860162000253565b91505092915050565b600073ffffffffffffffffffffffffffffffffffffffff82169050919050565b6000620002fe82620002d1565b9050919050565b6200031081620002f1565b81146200031c57600080fd5b50565b600081519050620003308162000305565b92915050565b60008060006060848603121562000352576200035162000148565b5b600084015167ffffffffffffffff8111156200037357620003726200014d565b5b62000381868287016200029e565b935050602084015167ffffffffffffffff811115620003a557620003a46200014d565b5b620003b3868287016200029e565b9250506040620003c6868287016200031f565b9150509250925092565b600081519050919050565b7f4e487b7100000000000000000000000000000000000000000000000000000000600052602260045260246000fd5b600060028204905060018216806200042357607f821691505b602082108103620004395762000438620003db565b5b50919050565b60008190508160005260206000209050919050565b60006020601f8301049050919050565b600082821b905092915050565b600060088302620004a37fffffffffffffffffffffffffffffffffffffffffffffffffffffffffffffffff8262000464565b620004af868362000464565b95508019841693508086168417925050509392505050565b6000819050919050565b6000819050919050565b6000620004fc620004f6620004f084620004c7565b620004d1565b620004c7565b9050919050565b6000819050919050565b6200051883620004db565b62000530620005278262000503565b84845462000471565b825550505050565b600090565b6200054762000538565b620005548184846200050d565b505050565b5b818110156200057c57620005706000826200053d565b6001810190506200055a565b5050565b601f821115620005cb5762000595816200043f565b620005a08462000454565b81016020851015620005b0578190505b620005c8620005bf8562000454565b83018262000559565b50505b505050565b600082821c905092915050565b6000620005f060001984600802620005d0565b1980831691505092915050565b60006200060b8383620005dd565b9150826002028217905092915050565b6200062682620003d0565b67ffffffffffffffff8111156200064257620006416200016d565b5b6200064e82546200040a565b6200065b82828562000580565b600060209050601f8311600181146200069357600084156200067e578287015190505b6200068a8582620005fd565b865550620006fa565b601f198416620006a3866200043f565b60005b82811015620006cd57848901518255600182019150602085019450602081019050620006a6565b86831015620006ed5784890151620006e9601f891682620005dd565b8355505b6001600288020188555050505b505050505050565b6200070d81620002f1565b82525050565b600082825260208201905092915050565b60006200073182620003d0565b6200073d818562000713565b93506200074f81856020860162000227565b6200075a816200015c565b840191505092915050565b60006060820190506200077c600083018662000702565b818103602083015262000790818562000724565b90508181036040830152620007a6818462000724565b9050949350505050565b61268e80620007c06000396000f3fe608060405234801561001057600080fd5b50600436106100f55760003560e01c80636352211e11610097578063a22cb46511610066578063a22cb46514610282578063b88d4fde1461029e578063c87b56dd146102ba578063e985e9c5146102ea576100f5565b80636352211e146101e857806370a082311461021857806395d89b411461024857806399197aa914610266576100f5565b8063095ea7b3116100d3578063095ea7b31461017857806323b872dd146101945780633d54eebb146101b057806342842e0e146101cc576100f5565b806301ffc9a7146100fa57806306fdde031461012a578063081812fc14610148575b600080fd5b610114600480360381019061010f91906119c2565b61031a565b6040516101219190611a0a565b60405180910390f35b61013261037b565b60405161013f9190611ab5565b60405180910390f35b610162600480360381019061015d9190611b0d565b61040d565b60405161016f9190611b7b565b60405180910390f35b610192600480360381019061018d9190611bc2565b610429565b005b6101ae60048036038101906101a99190611c02565b61043f565b005b6101ca60048036038101906101c59190611d8a565b610541565b005b6101e660048036038101906101e19190611c02565b61060a565b005b61020260048036038101906101fd9190611b0d565b61062a565b60405161020f9190611b7b565b60405180910390f35b610232600480360381019061022d9190611dd3565b61063c565b60405161023f9190611e0f565b60405180910390f35b6102506106f6565b60405161025d9190611ab5565b60405180910390f35b610280600480360381019061027b9190611e2a565b610788565b005b61029c60048036038101906102979190611ed9565b61085a565b005b6102b860048036038101906102b39190611fba565b610870565b005b6102d460048036038101906102cf9190611b0d565b61088d565b6040516102e19190611ab5565b60405180910390f35b61030460048036038101906102ff919061203d565b6109a0565b6040516103119190611a0a565b60405180910390f35b6000634906490660e01b7bffffffffffffffffffffffffffffffffffffffffffffffffffffffff1916827bffffffffffffffffffffffffffffffffffffffffffffffffffffffff19161480610374575061037382610a34565b5b9050919050565b60606000805461038a906120ac565b80601f01602080910402602001604051908101604052809291908181526020018280546103b6906120ac565b80156104035780601f106103d857610100808354040283529160200191610403565b820191906000526020600020905b8154815290600101906020018083116103e657829003601f168201915b5050505050905090565b600061041882610b16565b5061042282610b9e565b9050919050565b61043b8282610436610bdb565b610be3565b5050565b600073ffffffffffffffffffffffffffffffffffffffff168273ffffffffffffffffffffffffffffffffffffffff16036104b15760006040517f64a0ae920000000000000000000000000000000000000000000000000000000081526004016104a89190611b7b565b60405180910390fd5b60006104c583836104c0610bdb565b610bf5565b90508373ffffffffffffffffffffffffffffffffffffffff168173ffffffffffffffffffffffffffffffffffffffff161461053b578382826040517f64283d7b000000000000000000000000000000000000000000000000000000008152600401610532939291906120dd565b60405180910390fd5b50505050565b61054d33600754610e0f565b61055960075482610e2d565b600860009054906101000a900473ffffffffffffffffffffffffffffffffffffffff1673ffffffffffffffffffffffffffffffffffffffff16639135fd1c600754600033856040518563ffffffff1660e01b81526004016105bd9493929190612114565b600060405180830381600087803b1580156105d757600080fd5b505af11580156105eb573d6000803e3d6000fd5b50505050600760008154809291906106029061218f565b919050555050565b61062583838360405180602001604052806000815250610870565b505050565b600061063582610b16565b9050919050565b60008073ffffffffffffffffffffffffffffffffffffffff168273ffffffffffffffffffffffffffffffffffffffff16036106af5760006040517f89c62b640000000000000000000000000000000000000000000000000000000081526004016106a69190611b7b565b60405180910390fd5b600360008373ffffffffffffffffffffffffffffffffffffffff1673ffffffffffffffffffffffffffffffffffffffff168152602001908152602001600020549050919050565b606060018054610705906120ac565b80601f0160208091040260200160405190810160405280929190818152602001828054610731906120ac565b801561077e5780601f106107535761010080835404028352916020019161077e565b820191906000526020600020905b81548152906001019060200180831161076157829003601f168201915b5050505050905090565b600860009054906101000a900473ffffffffffffffffffffffffffffffffffffffff1673ffffffffffffffffffffffffffffffffffffffff1663a44b418530868686866107d48b61062a565b6040518763ffffffff1660e01b81526004016107f5969594939291906121d7565b600060405180830381600087803b15801561080f57600080fd5b505af1158015610823573d6000803e3d6000fd5b5050505061085433600860009054906101000a900473ffffffffffffffffffffffffffffffffffffffff168661043f565b50505050565b61086c610865610bdb565b8383610e89565b5050565b61087b84848461043f565b61088784848484610ff8565b50505050565b606061089882610b16565b5060006006600084815260200190815260200160002080546108b9906120ac565b80601f01602080910402602001604051908101604052809291908181526020018280546108e5906120ac565b80156109325780601f1061090757610100808354040283529160200191610932565b820191906000526020600020905b81548152906001019060200180831161091557829003601f168201915b5050505050905060006109436111af565b9050600081510361095857819250505061099b565b60008251111561098d57808260405160200161097592919061227b565b6040516020818303038152906040529250505061099b565b610996846111c6565b925050505b919050565b6000600560008473ffffffffffffffffffffffffffffffffffffffff1673ffffffffffffffffffffffffffffffffffffffff16815260200190815260200160002060008373ffffffffffffffffffffffffffffffffffffffff1673ffffffffffffffffffffffffffffffffffffffff16815260200190815260200160002060009054906101000a900460ff16905092915050565b60007f80ac58cd000000000000000000000000000000000000000000000000000000007bffffffffffffffffffffffffffffffffffffffffffffffffffffffff1916827bffffffffffffffffffffffffffffffffffffffffffffffffffffffff19161480610aff57507f5b5e139f000000000000000000000000000000000000000000000000000000007bffffffffffffffffffffffffffffffffffffffffffffffffffffffff1916827bffffffffffffffffffffffffffffffffffffffffffffffffffffffff1916145b80610b0f5750610b0e8261122f565b5b9050919050565b600080610b2283611299565b9050600073ffffffffffffffffffffffffffffffffffffffff168173ffffffffffffffffffffffffffffffffffffffff1603610b9557826040517f7e273289000000000000000000000000000000000000000000000000000000008152600401610b8c9190611e0f565b60405180910390fd5b80915050919050565b60006004600083815260200190815260200160002060009054906101000a900473ffffffffffffffffffffffffffffffffffffffff169050919050565b600033905090565b610bf083838360016112d6565b505050565b600080610c0184611299565b9050600073ffffffffffffffffffffffffffffffffffffffff168373ffffffffffffffffffffffffffffffffffffffff1614610c4357610c4281848661149b565b5b600073ffffffffffffffffffffffffffffffffffffffff168173ffffffffffffffffffffffffffffffffffffffff1614610cd457610c856000856000806112d6565b6001600360008373ffffffffffffffffffffffffffffffffffffffff1673ffffffffffffffffffffffffffffffffffffffff168152602001908152602001600020600082825403925050819055505b600073ffffffffffffffffffffffffffffffffffffffff168573ffffffffffffffffffffffffffffffffffffffff1614610d57576001600360008773ffffffffffffffffffffffffffffffffffffffff1673ffffffffffffffffffffffffffffffffffffffff168152602001908152602001600020600082825401925050819055505b846002600086815260200190815260200160002060006101000a81548173ffffffffffffffffffffffffffffffffffffffff021916908373ffffffffffffffffffffffffffffffffffffffff160217905550838573ffffffffffffffffffffffffffffffffffffffff168273ffffffffffffffffffffffffffffffffffffffff167fddf252ad1be2c89b69c2b068fc378daa952ba7f163c4a11628f55a4df523b3ef60405160405180910390a4809150509392505050565b610e2982826040518060200160405280600081525061155f565b5050565b80600660008481526020019081526020016000209081610e4d919061244b565b507ff8e1a15aba9398e019f0b49df1a4fde98ee17ae345cb5f6b5e2c27f5033e8ce782604051610e7d9190611e0f565b60405180910390a15050565b600073ffffffffffffffffffffffffffffffffffffffff168273ffffffffffffffffffffffffffffffffffffffff1603610efa57816040517f5b08ba18000000000000000000000000000000000000000000000000000000008152600401610ef19190611b7b565b60405180910390fd5b80600560008573ffffffffffffffffffffffffffffffffffffffff1673ffffffffffffffffffffffffffffffffffffffff16815260200190815260200160002060008473ffffffffffffffffffffffffffffffffffffffff1673ffffffffffffffffffffffffffffffffffffffff16815260200190815260200160002060006101000a81548160ff0219169083151502179055508173ffffffffffffffffffffffffffffffffffffffff168373ffffffffffffffffffffffffffffffffffffffff167f17307eab39ab6107e8899845ad3d59bd9653f200f220920489ca2b5937696c3183604051610feb9190611a0a565b60405180910390a3505050565b60008373ffffffffffffffffffffffffffffffffffffffff163b11156111a9578273ffffffffffffffffffffffffffffffffffffffff1663150b7a0261103c610bdb565b8685856040518563ffffffff1660e01b815260040161105e9493929190612572565b6020604051808303816000875af192505050801561109a57506040513d601f19601f8201168201806040525081019061109791906125d3565b60015b61111e573d80600081146110ca576040519150601f19603f3d011682016040523d82523d6000602084013e6110cf565b606091505b50600081510361111657836040517f64a0ae9200000000000000000000000000000000000000000000000000000000815260040161110d9190611b7b565b60405180910390fd5b805181602001fd5b63150b7a0260e01b7bffffffffffffffffffffffffffffffffffffffffffffffffffffffff1916817bffffffffffffffffffffffffffffffffffffffffffffffffffffffff1916146111a757836040517f64a0ae9200000000000000000000000000000000000000000000000000000000815260040161119e9190611b7b565b60405180910390fd5b505b50505050565b606060405180602001604052806000815250905090565b60606111d182610b16565b5060006111dc6111af565b905060008151116111fc5760405180602001604052806000815250611227565b806112068461157b565b60405160200161121792919061227b565b6040516020818303038152906040525b915050919050565b60007f01ffc9a7000000000000000000000000000000000000000000000000000000007bffffffffffffffffffffffffffffffffffffffffffffffffffffffff1916827bffffffffffffffffffffffffffffffffffffffffffffffffffffffff1916149050919050565b60006002600083815260200190815260200160002060009054906101000a900473ffffffffffffffffffffffffffffffffffffffff169050919050565b808061130f5750600073ffffffffffffffffffffffffffffffffffffffff168273ffffffffffffffffffffffffffffffffffffffff1614155b1561144357600061131f84610b16565b9050600073ffffffffffffffffffffffffffffffffffffffff168373ffffffffffffffffffffffffffffffffffffffff161415801561138a57508273ffffffffffffffffffffffffffffffffffffffff168173ffffffffffffffffffffffffffffffffffffffff1614155b801561139d575061139b81846109a0565b155b156113df57826040517fa9fbf51f0000000000000000000000000000000000000000000000000000000081526004016113d69190611b7b565b60405180910390fd5b811561144157838573ffffffffffffffffffffffffffffffffffffffff168273ffffffffffffffffffffffffffffffffffffffff167f8c5be1e5ebec7d5bd14f71427d1e84f3dd0314c0f7b2291e5b200ac8c7c3b92560405160405180910390a45b505b836004600085815260200190815260200160002060006101000a81548173ffffffffffffffffffffffffffffffffffffffff021916908373ffffffffffffffffffffffffffffffffffffffff16021790555050505050565b6114a6838383611649565b61155a57600073ffffffffffffffffffffffffffffffffffffffff168373ffffffffffffffffffffffffffffffffffffffff160361151b57806040517f7e2732890000000000000000000000000000000000000000000000000000000081526004016115129190611e0f565b60405180910390fd5b81816040517f177e802f000000000000000000000000000000000000000000000000000000008152600401611551929190612600565b60405180910390fd5b505050565b611569838361170a565b6115766000848484610ff8565b505050565b60606000600161158a84611803565b01905060008167ffffffffffffffff8111156115a9576115a8611c5f565b5b6040519080825280601f01601f1916602001820160405280156115db5781602001600182028036833780820191505090505b509050600082602001820190505b60011561163e578080600190039150507f3031323334353637383961626364656600000000000000000000000000000000600a86061a8153600a858161163257611631612629565b5b049450600085036115e9575b819350505050919050565b60008073ffffffffffffffffffffffffffffffffffffffff168373ffffffffffffffffffffffffffffffffffffffff161415801561170157508273ffffffffffffffffffffffffffffffffffffffff168473ffffffffffffffffffffffffffffffffffffffff1614806116c257506116c184846109a0565b5b8061170057508273ffffffffffffffffffffffffffffffffffffffff166116e883610b9e565b73ffffffffffffffffffffffffffffffffffffffff16145b5b90509392505050565b600073ffffffffffffffffffffffffffffffffffffffff168273ffffffffffffffffffffffffffffffffffffffff160361177c5760006040517f64a0ae920000000000000000000000000000000000000000000000000000000081526004016117739190611b7b565b60405180910390fd5b600061178a83836000610bf5565b9050600073ffffffffffffffffffffffffffffffffffffffff168173ffffffffffffffffffffffffffffffffffffffff16146117fe5760006040517f73c6ac6e0000000000000000000000000000000000000000000000000000000081526004016117f59190611b7b565b60405180910390fd5b505050565b600080600090507a184f03e93ff9f4daa797ed6e38ed64bf6a1f0100000000000000008310611861577a184f03e93ff9f4daa797ed6e38ed64bf6a1f010000000000000000838161185757611856612629565b5b0492506040810190505b6d04ee2d6d415b85acef8100000000831061189e576d04ee2d6d415b85acef8100000000838161189457611893612629565b5b0492506020810190505b662386f26fc1000083106118cd57662386f26fc1000083816118c3576118c2612629565b5b0492506010810190505b6305f5e10083106118f6576305f5e10083816118ec576118eb612629565b5b0492506008810190505b612710831061191b57612710838161191157611910612629565b5b0492506004810190505b6064831061193e576064838161193457611933612629565b5b0492506002810190505b600a831061194d576001810190505b80915050919050565b6000604051905090565b600080fd5b600080fd5b60007fffffffff0000000000000000000000000000000000000000000000000000000082169050919050565b61199f8161196a565b81146119aa57600080fd5b50565b6000813590506119bc81611996565b92915050565b6000602082840312156119d8576119d7611960565b5b60006119e6848285016119ad565b91505092915050565b60008115159050919050565b611a04816119ef565b82525050565b6000602082019050611a1f60008301846119fb565b92915050565b600081519050919050565b600082825260208201905092915050565b60005b83811015611a5f578082015181840152602081019050611a44565b60008484015250505050565b6000601f19601f8301169050919050565b6000611a8782611a25565b611a918185611a30565b9350611aa1818560208601611a41565b611aaa81611a6b565b840191505092915050565b60006020820190508181036000830152611acf8184611a7c565b905092915050565b6000819050919050565b611aea81611ad7565b8114611af557600080fd5b50565b600081359050611b0781611ae1565b92915050565b600060208284031215611b2357611b22611960565b5b6000611b3184828501611af8565b91505092915050565b600073ffffffffffffffffffffffffffffffffffffffff82169050919050565b6000611b6582611b3a565b9050919050565b611b7581611b5a565b82525050565b6000602082019050611b906000830184611b6c565b92915050565b611b9f81611b5a565b8114611baa57600080fd5b50565b600081359050611bbc81611b96565b92915050565b60008060408385031215611bd957611bd8611960565b5b6000611be785828601611bad565b9250506020611bf885828601611af8565b9150509250929050565b600080600060608486031215611c1b57611c1a611960565b5b6000611c2986828701611bad565b9350506020611c3a86828701611bad565b9250506040611c4b86828701611af8565b9150509250925092565b600080fd5b600080fd5b7f4e487b7100000000000000000000000000000000000000000000000000000000600052604160045260246000fd5b611c9782611a6b565b810181811067ffffffffffffffff82111715611cb657611cb5611c5f565b5b80604052505050565b6000611cc9611956565b9050611cd58282611c8e565b919050565b600067ffffffffffffffff821115611cf557611cf4611c5f565b5b611cfe82611a6b565b9050602081019050919050565b82818337600083830152505050565b6000611d2d611d2884611cda565b611cbf565b905082815260208101848484011115611d4957611d48611c5a565b5b611d54848285611d0b565b509392505050565b600082601f830112611d7157611d70611c55565b5b8135611d81848260208601611d1a565b91505092915050565b600060208284031215611da057611d9f611960565b5b600082013567ffffffffffffffff811115611dbe57611dbd611965565b5b611dca84828501611d5c565b91505092915050565b600060208284031215611de957611de8611960565b5b6000611df784828501611bad565b91505092915050565b611e0981611ad7565b82525050565b6000602082019050611e246000830184611e00565b92915050565b60008060008060808587031215611e4457611e43611960565b5b6000611e5287828801611af8565b9450506020611e6387828801611af8565b9350506040611e7487828801611af8565b925050606085013567ffffffffffffffff811115611e9557611e94611965565b5b611ea187828801611d5c565b91505092959194509250565b611eb6816119ef565b8114611ec157600080fd5b50565b600081359050611ed381611ead565b92915050565b60008060408385031215611ef057611eef611960565b5b6000611efe85828601611bad565b9250506020611f0f85828601611ec4565b9150509250929050565b600067ffffffffffffffff821115611f3457611f33611c5f565b5b611f3d82611a6b565b9050602081019050919050565b6000611f5d611f5884611f19565b611cbf565b905082815260208101848484011115611f7957611f78611c5a565b5b611f84848285611d0b565b509392505050565b600082601f830112611fa157611fa0611c55565b5b8135611fb1848260208601611f4a565b91505092915050565b60008060008060808587031215611fd457611fd3611960565b5b6000611fe287828801611bad565b9450506020611ff387828801611bad565b935050604061200487828801611af8565b925050606085013567ffffffffffffffff81111561202557612024611965565b5b61203187828801611f8c565b91505092959194509250565b6000806040838503121561205457612053611960565b5b600061206285828601611bad565b925050602061207385828601611bad565b9150509250929050565b7f4e487b7100000000000000000000000000000000000000000000000000000000600052602260045260246000fd5b600060028204905060018216806120c457607f821691505b6020821081036120d7576120d661207d565b5b50919050565b60006060820190506120f26000830186611b6c565b6120ff6020830185611e00565b61210c6040830184611b6c565b949350505050565b60006080820190506121296000830187611e00565b6121366020830186611b6c565b6121436040830185611b6c565b81810360608301526121558184611a7c565b905095945050505050565b7f4e487b7100000000000000000000000000000000000000000000000000000000600052601160045260246000fd5b600061219a82611ad7565b91507fffffffffffffffffffffffffffffffffffffffffffffffffffffffffffffffff82036121cc576121cb612160565b5b600182019050919050565b600060c0820190506121ec6000830189611b6c565b6121f96020830188611e00565b6122066040830187611e00565b6122136060830186611e00565b81810360808301526122258185611a7c565b905061223460a0830184611b6c565b979650505050505050565b600081905092915050565b600061225582611a25565b61225f818561223f565b935061226f818560208601611a41565b80840191505092915050565b6000612287828561224a565b9150612293828461224a565b91508190509392505050565b60008190508160005260206000209050919050565b60006020601f8301049050919050565b600082821b905092915050565b6000600883026123017fffffffffffffffffffffffffffffffffffffffffffffffffffffffffffffffff826122c4565b61230b86836122c4565b95508019841693508086168417925050509392505050565b6000819050919050565b600061234861234361233e84611ad7565b612323565b611ad7565b9050919050565b6000819050919050565b6123628361232d565b61237661236e8261234f565b8484546122d1565b825550505050565b600090565b61238b61237e565b612396818484612359565b505050565b5b818110156123ba576123af600082612383565b60018101905061239c565b5050565b601f8211156123ff576123d08161229f565b6123d9846122b4565b810160208510156123e8578190505b6123fc6123f4856122b4565b83018261239b565b50505b505050565b600082821c905092915050565b600061242260001984600802612404565b1980831691505092915050565b600061243b8383612411565b9150826002028217905092915050565b61245482611a25565b67ffffffffffffffff81111561246d5761246c611c5f565b5b61247782546120ac565b6124828282856123be565b600060209050601f8311600181146124b557600084156124a3578287015190505b6124ad858261242f565b865550612515565b601f1984166124c38661229f565b60005b828110156124eb578489015182556001820191506020850194506020810190506124c6565b868310156125085784890151612504601f891682612411565b8355505b6001600288020188555050505b505050505050565b600081519050919050565b600082825260208201905092915050565b60006125448261251d565b61254e8185612528565b935061255e818560208601611a41565b61256781611a6b565b840191505092915050565b60006080820190506125876000830187611b6c565b6125946020830186611b6c565b6125a16040830185611e00565b81810360608301526125b38184612539565b905095945050505050565b6000815190506125cd81611996565b92915050565b6000602082840312156125e9576125e8611960565b5b60006125f7848285016125be565b91505092915050565b60006040820190506126156000830185611b6c565b6126226020830184611e00565b9392505050565b7f4e487b7100000000000000000000000000000000000000000000000000000000600052601260045260246000fdfea2646970667358221220d2f5074ac6303415604e67d9763d9724c5fc74bc6c31991fa63588f62b1d30d564736f6c63430008140033",
  "linkReferences": {},
  "deployedLinkReferences": {}
}