{
  "_format": "hh-sol-artifact-1",
  "contractName": "DigitalItem",
  "sourceName": "contracts/DigitalItem.sol",
  "abi": [
    {
      "inputs": [
        {
          "internalType": "string",
          "name": "name",
          "type": "string"
        },
        {
          "internalType": "string",
          "name": "symbol",
          "type": "string"
        },
        {
          "internalType": "address",
          "name": "auctionHouse",
          "type": "address"
        }
      ],
      "stateMutability": "nonpayable",
      "type": "constructor"
    },
    {
      "inputs": [
        {
          "internalType": "address",
          "name": "sender",
          "type": "address"
        },
        {
          "internalType": "uint256",
          "name": "tokenId",
          "type": "uint256"
        },
        {
          "internalType": "address",
          "name": "owner",
          "type": "address"
        }
      ],
      "name": "ERC721IncorrectOwner",
      "type": "error"
    },
    {
      "inputs": [
        {
          "internalType": "address",
          "name": "operator",
          "type": "address"
        },
        {
          "internalType": "uint256",
          "name": "tokenId",
          "type": "uint256"
        }
      ],
      "name": "ERC721InsufficientApproval",
      "type": "error"
    },
    {
      "inputs": [
        {
          "internalType": "address",
          "name": "approver",
          "type": "address"
        }
      ],
      "name": "ERC721InvalidApprover",
      "type": "error"
    },
    {
      "inputs": [
        {
          "internalType": "address",
          "name": "operator",
          "type": "address"
        }
      ],
      "name": "ERC721InvalidOperator",
      "type": "error"
    },
    {
      "inputs": [
        {
          "internalType": "address",
          "name": "owner",
          "type": "address"
        }
      ],
      "name": "ERC721InvalidOwner",
      "type": "error"
    },
    {
      "inputs": [
        {
          "internalType": "address",
          "name": "receiver",
          "type": "address"
        }
      ],
      "name": "ERC721InvalidReceiver",
      "type": "error"
    },
    {
      "inputs": [
        {
          "internalType": "address",
          "name": "sender",
          "type": "address"
        }
      ],
      "name": "ERC721InvalidSender",
      "type": "error"
    },
    {
      "inputs": [
        {
          "internalType": "uint256",
          "name": "tokenId",
          "type": "uint256"
        }
      ],
      "name": "ERC721NonexistentToken",
      "type": "error"
    },
    {
      "anonymous": false,
      "inputs": [
        {
          "indexed": true,
          "internalType": "address",
          "name": "owner",
          "type": "address"
        },
        {
          "indexed": true,
          "internalType": "address",
          "name": "approved",
          "type": "address"
        },
        {
          "indexed": true,
          "internalType": "uint256",
          "name": "tokenId",
          "type": "uint256"
        }
      ],
      "name": "Approval",
      "type": "event"
    },
    {
      "anonymous": false,
      "inputs": [
        {
          "indexed": true,
          "internalType": "address",
          "name": "owner",
          "type": "address"
        },
        {
          "indexed": true,
          "internalType": "address",
          "name": "operator",
          "type": "address"
        },
        {
          "indexed": false,
          "internalType": "bool",
          "name": "approved",
          "type": "bool"
        }
      ],
      "name": "ApprovalForAll",
      "type": "event"
    },
    {
      "anonymous": false,
      "inputs": [
        {
          "indexed": false,
          "internalType": "uint256",
          "name": "_fromTokenId",
          "type": "uint256"
        },
        {
          "indexed": false,
          "internalType": "uint256",
          "name": "_toTokenId",
          "type": "uint256"
        }
      ],
      "name": "BatchMetadataUpdate",
      "type": "event"
    },
    {
      "anonymous": false,
      "inputs": [
        {
          "indexed": true,
          "internalType": "address",
          "name": "owner",
          "type": "address"
        },
        {
          "indexed": true,
          "internalType": "uint256",
          "name": "tokenId",
          "type": "uint256"
        },
        {
          "indexed": false,
          "internalType": "string",
          "name": "tokenURI",
          "type": "string"
        }
      ],
      "name": "ItemCreated",
      "type": "event"
    },
    {
      "anonymous": false,
      "inputs": [
        {
          "indexed": false,
          "internalType": "uint256",
          "name": "_tokenId",
          "type": "uint256"
        }
      ],
      "name": "MetadataUpdate",
      "type": "event"
    },
    {
      "anonymous": false,
      "inputs": [
        {
          "indexed": true,
          "internalType": "address",
          "name": "from",
          "type": "address"
        },
        {
          "indexed": true,
          "internalType": "address",
          "name": "to",
          "type": "address"
        },
        {
          "indexed": true,
          "internalType": "uint256",
          "name": "tokenId",
          "type": "uint256"
        }
      ],
      "name": "Transfer",
      "type": "event"
    },
    {
      "inputs": [
        {
          "internalType": "address",
          "name": "to",
          "type": "address"
        },
        {
          "internalType": "uint256",
          "name": "tokenId",
          "type": "uint256"
        }
      ],
      "name": "approve",
      "outputs": [],
      "stateMutability": "nonpayable",
      "type": "function"
    },
    {
      "inputs": [
        {
          "internalType": "address",
          "name": "owner",
          "type": "address"
        }
      ],
      "name": "balanceOf",
      "outputs": [
        {
          "internalType": "uint256",
          "name": "",
          "type": "uint256"
        }
      ],
      "stateMutability": "view",
      "type": "function"
    },
    {
      "inputs": [
        {
          "internalType": "string",
          "name": "tokenURI",
          "type": "string"
        }
      ],
      "name": "createItem",
      "outputs": [],
      "stateMutability": "nonpayable",
      "type": "function"
    },
    {
      "inputs": [
        {
          "internalType": "uint256",
          "name": "tokenId",
          "type": "uint256"
        }
      ],
      "name": "getApproved",
      "outputs": [
        {
          "internalType": "address",
          "name": "",
          "type": "address"
        }
      ],
      "stateMutability": "view",
      "type": "function"
    },
    {
      "inputs": [
        {
          "internalType": "address",
          "name": "owner",
          "type": "address"
        },
        {
          "internalType": "address",
          "name": "operator",
          "type": "address"
        }
      ],
      "name": "isApprovedForAll",
      "outputs": [
        {
          "internalType": "bool",
          "name": "",
          "type": "bool"
        }
      ],
      "stateMutability": "view",
      "type": "function"
    },
    {
      "inputs": [],
      "name": "name",
      "outputs": [
        {
          "internalType": "string",
          "name": "",
          "type": "string"
        }
      ],
      "stateMutability": "view",
      "type": "function"
    },
    {
      "inputs": [
        {
          "internalType": "uint256",
          "name": "tokenId",
          "type": "uint256"
        }
      ],
      "name": "ownerOf",
      "outputs": [
        {
          "internalType": "address",
          "name": "",
          "type": "address"
        }
      ],
      "stateMutability": "view",
      "type": "function"
    },
    {
      "inputs": [
        {
          "internalType": "address",
          "name": "from",
          "type": "address"
        },
        {
          "internalType": "address",
          "name": "to",
          "type": "address"
        },
        {
          "internalType": "uint256",
          "name": "tokenId",
          "type": "uint256"
        }
      ],
      "name": "safeTransferFrom",
      "outputs": [],
      "stateMutability": "nonpayable",
      "type": "function"
    },
    {
      "inputs": [
        {
          "internalType": "address",
          "name": "from",
          "type": "address"
        },
        {
          "internalType": "address",
          "name": "to",
          "type": "address"
        },
        {
          "internalType": "uint256",
          "name": "tokenId",
          "type": "uint256"
        },
        {
          "internalType": "bytes",
          "name": "data",
          "type": "bytes"
        }
      ],
      "name": "safeTransferFrom",
      "outputs": [],
      "stateMutability": "nonpayable",
      "type": "function"
    },
    {
      "inputs": [
        {
          "internalType": "address",
          "name": "operator",
          "type": "address"
        },
        {
          "internalType": "bool",
          "name": "approved",
          "type": "bool"
        }
      ],
      "name": "setApprovalForAll",
      "outputs": [],
      "stateMutability": "nonpayable",
      "type": "function"
    },
    {
      "inputs": [
        {
          "internalType": "bytes4",
          "name": "interfaceId",
          "type": "bytes4"
        }
      ],
      "name": "supportsInterface",
      "outputs": [
        {
          "internalType": "bool",
          "name": "",
          "type": "bool"
        }
      ],
      "stateMutability": "view",
      "type": "function"
    },
    {
      "inputs": [],
      "name": "symbol",
      "outputs": [
        {
          "internalType": "string",
          "name": "",
          "type": "string"
        }
      ],
      "stateMutability": "view",
      "type": "function"
    },
    {
      "inputs": [
        {
          "internalType": "uint256",
          "name": "tokenId",
          "type": "uint256"
        }
      ],
      "name": "tokenURI",
      "outputs": [
        {
          "internalType": "string",
          "name": "",
          "type": "string"
        }
      ],
      "stateMutability": "view",
      "type": "function"
    },
    {
      "inputs": [
        {
          "internalType": "address",
          "name": "from",
          "type": "address"
        },
        {
          "internalType": "address",
          "name": "to",
          "type": "address"
        },
        {
          "internalType": "uint256",
          "name": "tokenId",
          "type": "uint256"
        }
      ],
      "name": "transferFrom",
      "outputs": [],
      "stateMutability": "nonpayable",
      "type": "function"
    }
  ],
  "bytecode": "0x60806040523480156200001157600080fd5b5060405162002cfb38038062002cfb8339818101604052810190620000379190620003ab565b828281600090816200004a919062000690565b5080600190816200005c919062000690565b5050506000808273ffffffffffffffffffffffffffffffffffffffff163386866040516024016200009093929190620007da565b6040516020818303038152906040527f35a9c596000000000000000000000000000000000000000000000000000000007bffffffffffffffffffffffffffffffffffffffffffffffffffffffff19166020820180517bffffffffffffffffffffffffffffffffffffffffffffffffffffffff83818316178352505050506040516200011c919062000872565b6000604051808303816000865af19150503d80600081146200015b576040519150601f19603f3d011682016040523d82523d6000602084013e62000160565b606091505b509150915081620001a8576040517f08c379a00000000000000000000000000000000000000000000000000000000081526004016200019f9062000901565b60405180910390fd5b505050505062000923565b6000604051905090565b600080fd5b600080fd5b600080fd5b600080fd5b6000601f19601f8301169050919050565b7f4e487b7100000000000000000000000000000000000000000000000000000000600052604160045260246000fd5b6200021c82620001d1565b810181811067ffffffffffffffff821117156200023e576200023d620001e2565b5b80604052505050565b600062000253620001b3565b905062000261828262000211565b919050565b600067ffffffffffffffff821115620002845762000283620001e2565b5b6200028f82620001d1565b9050602081019050919050565b60005b83811015620002bc5780820151818401526020810190506200029f565b60008484015250505050565b6000620002df620002d98462000266565b62000247565b905082815260208101848484011115620002fe57620002fd620001cc565b5b6200030b8482856200029c565b509392505050565b600082601f8301126200032b576200032a620001c7565b5b81516200033d848260208601620002c8565b91505092915050565b600073ffffffffffffffffffffffffffffffffffffffff82169050919050565b6000620003738262000346565b9050919050565b620003858162000366565b81146200039157600080fd5b50565b600081519050620003a5816200037a565b92915050565b600080600060608486031215620003c757620003c6620001bd565b5b600084015167ffffffffffffffff811115620003e857620003e7620001c2565b5b620003f68682870162000313565b935050602084015167ffffffffffffffff8111156200041a5762000419620001c2565b5b620004288682870162000313565b92505060406200043b8682870162000394565b9150509250925092565b600081519050919050565b7f4e487b7100000000000000000000000000000000000000000000000000000000600052602260045260246000fd5b600060028204905060018216806200049857607f821691505b602082108103620004ae57620004ad62000450565b5b50919050565b60008190508160005260206000209050919050565b60006020601f8301049050919050565b600082821b905092915050565b600060088302620005187fffffffffffffffffffffffffffffffffffffffffffffffffffffffffffffffff82620004d9565b620005248683620004d9565b95508019841693508086168417925050509392505050565b6000819050919050565b6000819050919050565b6000620005716200056b62000565846200053c565b62000546565b6200053c565b9050919050565b6000819050919050565b6200058d8362000550565b620005a56200059c8262000578565b848454620004e6565b825550505050565b600090565b620005bc620005ad565b620005c981848462000582565b505050565b5b81811015620005f157620005e5600082620005b2565b600181019050620005cf565b5050565b601f82111562000640576200060a81620004b4565b6200061584620004c9565b8101602085101562000625578190505b6200063d6200063485620004c9565b830182620005ce565b50505b505050565b600082821c905092915050565b6000620006656000198460080262000645565b1980831691505092915050565b600062000680838362000652565b9150826002028217905092915050565b6200069b8262000445565b67ffffffffffffffff811115620006b757620006b6620001e2565b5b620006c382546200047f565b620006d0828285620005f5565b600060209050601f831160018114620007085760008415620006f3578287015190505b620006ff858262000672565b8655506200076f565b601f1984166200071886620004b4565b60005b8281101562000742578489015182556001820191506020850194506020810190506200071b565b868310156200076257848901516200075e601f89168262000652565b8355505b6001600288020188555050505b505050505050565b620007828162000366565b82525050565b600082825260208201905092915050565b6000620007a68262000445565b620007b2818562000788565b9350620007c48185602086016200029c565b620007cf81620001d1565b840191505092915050565b6000606082019050620007f1600083018662000777565b818103602083015262000805818562000799565b905081810360408301526200081b818462000799565b9050949350505050565b600081519050919050565b600081905092915050565b6000620008488262000825565b62000854818562000830565b9350620008668185602086016200029c565b80840191505092915050565b60006200088082846200083b565b915081905092915050565b7f41756374696f6e486f7573653a20637265617465436f6c6c656374696f6e206660008201527f61696c6564000000000000000000000000000000000000000000000000000000602082015250565b6000620008e960258362000788565b9150620008f6826200088b565b604082019050919050565b600060208201905081810360008301526200091c81620008da565b9050919050565b6123c880620009336000396000f3fe608060405234801561001057600080fd5b50600436106100ea5760003560e01c80636352211e1161008c578063a22cb46511610066578063a22cb4651461025b578063b88d4fde14610277578063c87b56dd14610293578063e985e9c5146102c3576100ea565b80636352211e146101dd57806370a082311461020d57806395d89b411461023d576100ea565b8063095ea7b3116100c8578063095ea7b31461016d57806323b872dd146101895780633d54eebb146101a557806342842e0e146101c1576100ea565b806301ffc9a7146100ef57806306fdde031461011f578063081812fc1461013d575b600080fd5b61010960048036038101906101049190611833565b6102f3565b604051610116919061187b565b60405180910390f35b610127610354565b6040516101349190611926565b60405180910390f35b6101576004803603810190610152919061197e565b6103e6565b60405161016491906119ec565b60405180910390f35b61018760048036038101906101829190611a33565b610402565b005b6101a3600480360381019061019e9190611a73565b610418565b005b6101bf60048036038101906101ba9190611bfb565b61051a565b005b6101db60048036038101906101d69190611a73565b61054d565b005b6101f760048036038101906101f2919061197e565b61056d565b60405161020491906119ec565b60405180910390f35b61022760048036038101906102229190611c44565b61057f565b6040516102349190611c80565b60405180910390f35b610245610639565b6040516102529190611926565b60405180910390f35b61027560048036038101906102709190611cc7565b6106cb565b005b610291600480360381019061028c9190611da8565b6106e1565b005b6102ad60048036038101906102a8919061197e565b6106fe565b6040516102ba9190611926565b60405180910390f35b6102dd60048036038101906102d89190611e2b565b610811565b6040516102ea919061187b565b60405180910390f35b6000634906490660e01b7bffffffffffffffffffffffffffffffffffffffffffffffffffffffff1916827bffffffffffffffffffffffffffffffffffffffffffffffffffffffff1916148061034d575061034c826108a5565b5b9050919050565b60606000805461036390611e9a565b80601f016020809104026020016040519081016040528092919081815260200182805461038f90611e9a565b80156103dc5780601f106103b1576101008083540402835291602001916103dc565b820191906000526020600020905b8154815290600101906020018083116103bf57829003601f168201915b5050505050905090565b60006103f182610987565b506103fb82610a0f565b9050919050565b610414828261040f610a4c565b610a54565b5050565b600073ffffffffffffffffffffffffffffffffffffffff168273ffffffffffffffffffffffffffffffffffffffff160361048a5760006040517f64a0ae9200000000000000000000000000000000000000000000000000000000815260040161048191906119ec565b60405180910390fd5b600061049e8383610499610a4c565b610a66565b90508373ffffffffffffffffffffffffffffffffffffffff168173ffffffffffffffffffffffffffffffffffffffff1614610514578382826040517f64283d7b00000000000000000000000000000000000000000000000000000000815260040161050b93929190611ecb565b60405180910390fd5b50505050565b6007600081548092919061052d90611f31565b919050555061053e33600754610c80565b61054a60075482610c9e565b50565b610568838383604051806020016040528060008152506106e1565b505050565b600061057882610987565b9050919050565b60008073ffffffffffffffffffffffffffffffffffffffff168273ffffffffffffffffffffffffffffffffffffffff16036105f25760006040517f89c62b640000000000000000000000000000000000000000000000000000000081526004016105e991906119ec565b60405180910390fd5b600360008373ffffffffffffffffffffffffffffffffffffffff1673ffffffffffffffffffffffffffffffffffffffff168152602001908152602001600020549050919050565b60606001805461064890611e9a565b80601f016020809104026020016040519081016040528092919081815260200182805461067490611e9a565b80156106c15780601f10610696576101008083540402835291602001916106c1565b820191906000526020600020905b8154815290600101906020018083116106a457829003601f168201915b5050505050905090565b6106dd6106d6610a4c565b8383610cfa565b5050565b6106ec848484610418565b6106f884848484610e69565b50505050565b606061070982610987565b50600060066000848152602001908152602001600020805461072a90611e9a565b80601f016020809104026020016040519081016040528092919081815260200182805461075690611e9a565b80156107a35780601f10610778576101008083540402835291602001916107a3565b820191906000526020600020905b81548152906001019060200180831161078657829003601f168201915b5050505050905060006107b4611020565b905060008151036107c957819250505061080c565b6000825111156107fe5780826040516020016107e6929190611fb5565b6040516020818303038152906040529250505061080c565b61080784611037565b925050505b919050565b6000600560008473ffffffffffffffffffffffffffffffffffffffff1673ffffffffffffffffffffffffffffffffffffffff16815260200190815260200160002060008373ffffffffffffffffffffffffffffffffffffffff1673ffffffffffffffffffffffffffffffffffffffff16815260200190815260200160002060009054906101000a900460ff16905092915050565b60007f80ac58cd000000000000000000000000000000000000000000000000000000007bffffffffffffffffffffffffffffffffffffffffffffffffffffffff1916827bffffffffffffffffffffffffffffffffffffffffffffffffffffffff1916148061097057507f5b5e139f000000000000000000000000000000000000000000000000000000007bffffffffffffffffffffffffffffffffffffffffffffffffffffffff1916827bffffffffffffffffffffffffffffffffffffffffffffffffffffffff1916145b80610980575061097f826110a0565b5b9050919050565b6000806109938361110a565b9050600073ffffffffffffffffffffffffffffffffffffffff168173ffffffffffffffffffffffffffffffffffffffff1603610a0657826040517f7e2732890000000000000000000000000000000000000000000000000000000081526004016109fd9190611c80565b60405180910390fd5b80915050919050565b60006004600083815260200190815260200160002060009054906101000a900473ffffffffffffffffffffffffffffffffffffffff169050919050565b600033905090565b610a618383836001611147565b505050565b600080610a728461110a565b9050600073ffffffffffffffffffffffffffffffffffffffff168373ffffffffffffffffffffffffffffffffffffffff1614610ab457610ab381848661130c565b5b600073ffffffffffffffffffffffffffffffffffffffff168173ffffffffffffffffffffffffffffffffffffffff1614610b4557610af6600085600080611147565b6001600360008373ffffffffffffffffffffffffffffffffffffffff1673ffffffffffffffffffffffffffffffffffffffff168152602001908152602001600020600082825403925050819055505b600073ffffffffffffffffffffffffffffffffffffffff168573ffffffffffffffffffffffffffffffffffffffff1614610bc8576001600360008773ffffffffffffffffffffffffffffffffffffffff1673ffffffffffffffffffffffffffffffffffffffff168152602001908152602001600020600082825401925050819055505b846002600086815260200190815260200160002060006101000a81548173ffffffffffffffffffffffffffffffffffffffff021916908373ffffffffffffffffffffffffffffffffffffffff160217905550838573ffffffffffffffffffffffffffffffffffffffff168273ffffffffffffffffffffffffffffffffffffffff167fddf252ad1be2c89b69c2b068fc378daa952ba7f163c4a11628f55a4df523b3ef60405160405180910390a4809150509392505050565b610c9a8282604051806020016040528060008152506113d0565b5050565b80600660008481526020019081526020016000209081610cbe9190612185565b507ff8e1a15aba9398e019f0b49df1a4fde98ee17ae345cb5f6b5e2c27f5033e8ce782604051610cee9190611c80565b60405180910390a15050565b600073ffffffffffffffffffffffffffffffffffffffff168273ffffffffffffffffffffffffffffffffffffffff1603610d6b57816040517f5b08ba18000000000000000000000000000000000000000000000000000000008152600401610d6291906119ec565b60405180910390fd5b80600560008573ffffffffffffffffffffffffffffffffffffffff1673ffffffffffffffffffffffffffffffffffffffff16815260200190815260200160002060008473ffffffffffffffffffffffffffffffffffffffff1673ffffffffffffffffffffffffffffffffffffffff16815260200190815260200160002060006101000a81548160ff0219169083151502179055508173ffffffffffffffffffffffffffffffffffffffff168373ffffffffffffffffffffffffffffffffffffffff167f17307eab39ab6107e8899845ad3d59bd9653f200f220920489ca2b5937696c3183604051610e5c919061187b565b60405180910390a3505050565b60008373ffffffffffffffffffffffffffffffffffffffff163b111561101a578273ffffffffffffffffffffffffffffffffffffffff1663150b7a02610ead610a4c565b8685856040518563ffffffff1660e01b8152600401610ecf94939291906122ac565b6020604051808303816000875af1925050508015610f0b57506040513d601f19601f82011682018060405250810190610f08919061230d565b60015b610f8f573d8060008114610f3b576040519150601f19603f3d011682016040523d82523d6000602084013e610f40565b606091505b506000815103610f8757836040517f64a0ae92000000000000000000000000000000000000000000000000000000008152600401610f7e91906119ec565b60405180910390fd5b805181602001fd5b63150b7a0260e01b7bffffffffffffffffffffffffffffffffffffffffffffffffffffffff1916817bffffffffffffffffffffffffffffffffffffffffffffffffffffffff19161461101857836040517f64a0ae9200000000000000000000000000000000000000000000000000000000815260040161100f91906119ec565b60405180910390fd5b505b50505050565b606060405180602001604052806000815250905090565b606061104282610987565b50600061104d611020565b9050600081511161106d5760405180602001604052806000815250611098565b80611077846113ec565b604051602001611088929190611fb5565b6040516020818303038152906040525b915050919050565b60007f01ffc9a7000000000000000000000000000000000000000000000000000000007bffffffffffffffffffffffffffffffffffffffffffffffffffffffff1916827bffffffffffffffffffffffffffffffffffffffffffffffffffffffff1916149050919050565b60006002600083815260200190815260200160002060009054906101000a900473ffffffffffffffffffffffffffffffffffffffff169050919050565b80806111805750600073ffffffffffffffffffffffffffffffffffffffff168273ffffffffffffffffffffffffffffffffffffffff1614155b156112b457600061119084610987565b9050600073ffffffffffffffffffffffffffffffffffffffff168373ffffffffffffffffffffffffffffffffffffffff16141580156111fb57508273ffffffffffffffffffffffffffffffffffffffff168173ffffffffffffffffffffffffffffffffffffffff1614155b801561120e575061120c8184610811565b155b1561125057826040517fa9fbf51f00000000000000000000000000000000000000000000000000000000815260040161124791906119ec565b60405180910390fd5b81156112b257838573ffffffffffffffffffffffffffffffffffffffff168273ffffffffffffffffffffffffffffffffffffffff167f8c5be1e5ebec7d5bd14f71427d1e84f3dd0314c0f7b2291e5b200ac8c7c3b92560405160405180910390a45b505b836004600085815260200190815260200160002060006101000a81548173ffffffffffffffffffffffffffffffffffffffff021916908373ffffffffffffffffffffffffffffffffffffffff16021790555050505050565b6113178383836114ba565b6113cb57600073ffffffffffffffffffffffffffffffffffffffff168373ffffffffffffffffffffffffffffffffffffffff160361138c57806040517f7e2732890000000000000000000000000000000000000000000000000000000081526004016113839190611c80565b60405180910390fd5b81816040517f177e802f0000000000000000000000000000000000000000000000000000000081526004016113c292919061233a565b60405180910390fd5b505050565b6113da838361157b565b6113e76000848484610e69565b505050565b6060600060016113fb84611674565b01905060008167ffffffffffffffff81111561141a57611419611ad0565b5b6040519080825280601f01601f19166020018201604052801561144c5781602001600182028036833780820191505090505b509050600082602001820190505b6001156114af578080600190039150507f3031323334353637383961626364656600000000000000000000000000000000600a86061a8153600a85816114a3576114a2612363565b5b0494506000850361145a575b819350505050919050565b60008073ffffffffffffffffffffffffffffffffffffffff168373ffffffffffffffffffffffffffffffffffffffff161415801561157257508273ffffffffffffffffffffffffffffffffffffffff168473ffffffffffffffffffffffffffffffffffffffff16148061153357506115328484610811565b5b8061157157508273ffffffffffffffffffffffffffffffffffffffff1661155983610a0f565b73ffffffffffffffffffffffffffffffffffffffff16145b5b90509392505050565b600073ffffffffffffffffffffffffffffffffffffffff168273ffffffffffffffffffffffffffffffffffffffff16036115ed5760006040517f64a0ae920000000000000000000000000000000000000000000000000000000081526004016115e491906119ec565b60405180910390fd5b60006115fb83836000610a66565b9050600073ffffffffffffffffffffffffffffffffffffffff168173ffffffffffffffffffffffffffffffffffffffff161461166f5760006040517f73c6ac6e00000000000000000000000000000000000000000000000000000000815260040161166691906119ec565b60405180910390fd5b505050565b600080600090507a184f03e93ff9f4daa797ed6e38ed64bf6a1f01000000000000000083106116d2577a184f03e93ff9f4daa797ed6e38ed64bf6a1f01000000000000000083816116c8576116c7612363565b5b0492506040810190505b6d04ee2d6d415b85acef8100000000831061170f576d04ee2d6d415b85acef8100000000838161170557611704612363565b5b0492506020810190505b662386f26fc10000831061173e57662386f26fc10000838161173457611733612363565b5b0492506010810190505b6305f5e1008310611767576305f5e100838161175d5761175c612363565b5b0492506008810190505b612710831061178c57612710838161178257611781612363565b5b0492506004810190505b606483106117af57606483816117a5576117a4612363565b5b0492506002810190505b600a83106117be576001810190505b80915050919050565b6000604051905090565b600080fd5b600080fd5b60007fffffffff0000000000000000000000000000000000000000000000000000000082169050919050565b611810816117db565b811461181b57600080fd5b50565b60008135905061182d81611807565b92915050565b600060208284031215611849576118486117d1565b5b60006118578482850161181e565b91505092915050565b60008115159050919050565b61187581611860565b82525050565b6000602082019050611890600083018461186c565b92915050565b600081519050919050565b600082825260208201905092915050565b60005b838110156118d05780820151818401526020810190506118b5565b60008484015250505050565b6000601f19601f8301169050919050565b60006118f882611896565b61190281856118a1565b93506119128185602086016118b2565b61191b816118dc565b840191505092915050565b6000602082019050818103600083015261194081846118ed565b905092915050565b6000819050919050565b61195b81611948565b811461196657600080fd5b50565b60008135905061197881611952565b92915050565b600060208284031215611994576119936117d1565b5b60006119a284828501611969565b91505092915050565b600073ffffffffffffffffffffffffffffffffffffffff82169050919050565b60006119d6826119ab565b9050919050565b6119e6816119cb565b82525050565b6000602082019050611a0160008301846119dd565b92915050565b611a10816119cb565b8114611a1b57600080fd5b50565b600081359050611a2d81611a07565b92915050565b60008060408385031215611a4a57611a496117d1565b5b6000611a5885828601611a1e565b9250506020611a6985828601611969565b9150509250929050565b600080600060608486031215611a8c57611a8b6117d1565b5b6000611a9a86828701611a1e565b9350506020611aab86828701611a1e565b9250506040611abc86828701611969565b9150509250925092565b600080fd5b600080fd5b7f4e487b7100000000000000000000000000000000000000000000000000000000600052604160045260246000fd5b611b08826118dc565b810181811067ffffffffffffffff82111715611b2757611b26611ad0565b5b80604052505050565b6000611b3a6117c7565b9050611b468282611aff565b919050565b600067ffffffffffffffff821115611b6657611b65611ad0565b5b611b6f826118dc565b9050602081019050919050565b82818337600083830152505050565b6000611b9e611b9984611b4b565b611b30565b905082815260208101848484011115611bba57611bb9611acb565b5b611bc5848285611b7c565b509392505050565b600082601f830112611be257611be1611ac6565b5b8135611bf2848260208601611b8b565b91505092915050565b600060208284031215611c1157611c106117d1565b5b600082013567ffffffffffffffff811115611c2f57611c2e6117d6565b5b611c3b84828501611bcd565b91505092915050565b600060208284031215611c5a57611c596117d1565b5b6000611c6884828501611a1e565b91505092915050565b611c7a81611948565b82525050565b6000602082019050611c956000830184611c71565b92915050565b611ca481611860565b8114611caf57600080fd5b50565b600081359050611cc181611c9b565b92915050565b60008060408385031215611cde57611cdd6117d1565b5b6000611cec85828601611a1e565b9250506020611cfd85828601611cb2565b9150509250929050565b600067ffffffffffffffff821115611d2257611d21611ad0565b5b611d2b826118dc565b9050602081019050919050565b6000611d4b611d4684611d07565b611b30565b905082815260208101848484011115611d6757611d66611acb565b5b611d72848285611b7c565b509392505050565b600082601f830112611d8f57611d8e611ac6565b5b8135611d9f848260208601611d38565b91505092915050565b60008060008060808587031215611dc257611dc16117d1565b5b6000611dd087828801611a1e565b9450506020611de187828801611a1e565b9350506040611df287828801611969565b925050606085013567ffffffffffffffff811115611e1357611e126117d6565b5b611e1f87828801611d7a565b91505092959194509250565b60008060408385031215611e4257611e416117d1565b5b6000611e5085828601611a1e565b9250506020611e6185828601611a1e565b9150509250929050565b7f4e487b7100000000000000000000000000000000000000000000000000000000600052602260045260246000fd5b60006002820490506001821680611eb257607f821691505b602082108103611ec557611ec4611e6b565b5b50919050565b6000606082019050611ee060008301866119dd565b611eed6020830185611c71565b611efa60408301846119dd565b949350505050565b7f4e487b7100000000000000000000000000000000000000000000000000000000600052601160045260246000fd5b6000611f3c82611948565b91507fffffffffffffffffffffffffffffffffffffffffffffffffffffffffffffffff8203611f6e57611f6d611f02565b5b600182019050919050565b600081905092915050565b6000611f8f82611896565b611f998185611f79565b9350611fa98185602086016118b2565b80840191505092915050565b6000611fc18285611f84565b9150611fcd8284611f84565b91508190509392505050565b60008190508160005260206000209050919050565b60006020601f8301049050919050565b600082821b905092915050565b60006008830261203b7fffffffffffffffffffffffffffffffffffffffffffffffffffffffffffffffff82611ffe565b6120458683611ffe565b95508019841693508086168417925050509392505050565b6000819050919050565b600061208261207d61207884611948565b61205d565b611948565b9050919050565b6000819050919050565b61209c83612067565b6120b06120a882612089565b84845461200b565b825550505050565b600090565b6120c56120b8565b6120d0818484612093565b505050565b5b818110156120f4576120e96000826120bd565b6001810190506120d6565b5050565b601f8211156121395761210a81611fd9565b61211384611fee565b81016020851015612122578190505b61213661212e85611fee565b8301826120d5565b50505b505050565b600082821c905092915050565b600061215c6000198460080261213e565b1980831691505092915050565b6000612175838361214b565b9150826002028217905092915050565b61218e82611896565b67ffffffffffffffff8111156121a7576121a6611ad0565b5b6121b18254611e9a565b6121bc8282856120f8565b600060209050601f8311600181146121ef57600084156121dd578287015190505b6121e78582612169565b86555061224f565b601f1984166121fd86611fd9565b60005b8281101561222557848901518255600182019150602085019450602081019050612200565b86831015612242578489015161223e601f89168261214b565b8355505b6001600288020188555050505b505050505050565b600081519050919050565b600082825260208201905092915050565b600061227e82612257565b6122888185612262565b93506122988185602086016118b2565b6122a1816118dc565b840191505092915050565b60006080820190506122c160008301876119dd565b6122ce60208301866119dd565b6122db6040830185611c71565b81810360608301526122ed8184612273565b905095945050505050565b60008151905061230781611807565b92915050565b600060208284031215612323576123226117d1565b5b6000612331848285016122f8565b91505092915050565b600060408201905061234f60008301856119dd565b61235c6020830184611c71565b9392505050565b7f4e487b7100000000000000000000000000000000000000000000000000000000600052601260045260246000fdfea2646970667358221220ac2b1a165754389472e100685020573329375180e9890d29d4ce3761be250cec64736f6c63430008140033",
  "linkReferences": {},
  "deployedLinkReferences": {}
}